{
	"FundMe.sol": {
		"FundMe": {
			"abi": [
				{
					"inputs": [],
					"stateMutability": "nonpayable",
					"type": "constructor"
				},
				{
					"inputs": [],
					"name": "NotOwner",
					"type": "error"
				},
				{
					"stateMutability": "payable",
					"type": "fallback"
				},
				{
					"inputs": [],
					"name": "MIN_USD",
					"outputs": [
						{
							"internalType": "uint256",
							"name": "",
							"type": "uint256"
						}
					],
					"stateMutability": "view",
					"type": "function"
				},
				{
					"inputs": [
						{
							"internalType": "address",
							"name": "",
							"type": "address"
						}
					],
					"name": "addressToAmountFunded",
					"outputs": [
						{
							"internalType": "uint256",
							"name": "",
							"type": "uint256"
						}
					],
					"stateMutability": "view",
					"type": "function"
				},
				{
					"inputs": [],
					"name": "fund",
					"outputs": [],
					"stateMutability": "payable",
					"type": "function"
				},
				{
					"inputs": [
						{
							"internalType": "uint256",
							"name": "",
							"type": "uint256"
						}
					],
					"name": "funders",
					"outputs": [
						{
							"internalType": "address",
							"name": "",
							"type": "address"
						}
					],
					"stateMutability": "view",
					"type": "function"
				},
				{
					"inputs": [],
					"name": "i_owner",
					"outputs": [
						{
							"internalType": "address",
							"name": "",
							"type": "address"
						}
					],
					"stateMutability": "view",
					"type": "function"
				},
				{
					"inputs": [],
					"name": "withdraw",
					"outputs": [],
					"stateMutability": "nonpayable",
					"type": "function"
				},
				{
					"stateMutability": "payable",
					"type": "receive"
				}
			],
			"devdoc": {
				"kind": "dev",
				"methods": {},
				"version": 1
			},
			"evm": {
				"assembly": "    /* \"FundMe.sol\":169:1384  contract FundMe {... */\n  mstore(0x40, 0xa0)\n    /* \"FundMe.sol\":435:486  constructor() {... */\n  callvalue\n  dup1\n  iszero\n  tag_1\n  jumpi\n  0x00\n  dup1\n  revert\ntag_1:\n  pop\n    /* \"FundMe.sol\":469:479  msg.sender */\n  caller\n    /* \"FundMe.sol\":459:479  i_owner = msg.sender */\n  0xffffffffffffffffffffffffffffffffffffffff\n  and\n  0x80\n  dup2\n  0xffffffffffffffffffffffffffffffffffffffff\n  and\n  dup2\n  mstore\n  pop\n  pop\n    /* \"FundMe.sol\":169:1384  contract FundMe {... */\n  mload(0x80)\n  codecopy(0x00, dataOffset(sub_0), dataSize(sub_0))\n  0x00\n  assignImmutable(\"0xeafa31dc210956fc0884ec5660eba9405197797219cbbda41b6aaf7118c651d8\")\n  return(0x00, dataSize(sub_0))\nstop\n\nsub_0: assembly {\n        /* \"FundMe.sol\":169:1384  contract FundMe {... */\n      mstore(0x40, 0x80)\n      jumpi(tag_1, lt(calldatasize, 0x04))\n      shr(0xe0, calldataload(0x00))\n      dup1\n      0x213dbea2\n      eq\n      tag_3\n      jumpi\n      dup1\n      0x3ccfd60b\n      eq\n      tag_4\n      jumpi\n      dup1\n      0x3e47d6f3\n      eq\n      tag_5\n      jumpi\n      dup1\n      0xb60d4288\n      eq\n      tag_6\n      jumpi\n      dup1\n      0xdba6335f\n      eq\n      tag_7\n      jumpi\n      dup1\n      0xdc0d3dff\n      eq\n      tag_8\n      jumpi\n      jump(tag_2)\n    tag_1:\n      jumpi(tag_2, calldatasize)\n        /* \"FundMe.sol\":1311:1317  fund() */\n      tag_11\n        /* \"FundMe.sol\":1311:1315  fund */\n      tag_12\n        /* \"FundMe.sol\":1311:1317  fund() */\n      jump\t// in\n    tag_11:\n        /* \"FundMe.sol\":169:1384  contract FundMe {... */\n      stop\n    tag_2:\n        /* \"FundMe.sol\":1369:1375  fund() */\n      tag_15\n        /* \"FundMe.sol\":1369:1373  fund */\n      tag_12\n        /* \"FundMe.sol\":1369:1375  fund() */\n      jump\t// in\n    tag_15:\n        /* \"FundMe.sol\":169:1384  contract FundMe {... */\n      stop\n        /* \"FundMe.sol\":253:296  uint256 public constant MIN_USD = 50 * 1e18 */\n    tag_3:\n      callvalue\n      dup1\n      iszero\n      tag_16\n      jumpi\n      0x00\n      dup1\n      revert\n    tag_16:\n      pop\n      tag_17\n      tag_18\n      jump\t// in\n    tag_17:\n      mload(0x40)\n      tag_19\n      swap2\n      swap1\n      tag_20\n      jump\t// in\n    tag_19:\n      mload(0x40)\n      dup1\n      swap2\n      sub\n      swap1\n      return\n        /* \"FundMe.sol\":706:1099  function withdraw() public onlyOwner {... */\n    tag_4:\n      callvalue\n      dup1\n      iszero\n      tag_21\n      jumpi\n      0x00\n      dup1\n      revert\n    tag_21:\n      pop\n      tag_22\n      tag_23\n      jump\t// in\n    tag_22:\n      stop\n        /* \"FundMe.sol\":333:389  mapping(address => uint256) public addressToAmountFunded */\n    tag_5:\n      callvalue\n      dup1\n      iszero\n      tag_24\n      jumpi\n      0x00\n      dup1\n      revert\n    tag_24:\n      pop\n      tag_25\n      0x04\n      dup1\n      calldatasize\n      sub\n      dup2\n      add\n      swap1\n      tag_26\n      swap2\n      swap1\n      tag_27\n      jump\t// in\n    tag_26:\n      tag_28\n      jump\t// in\n    tag_25:\n      mload(0x40)\n      tag_29\n      swap2\n      swap1\n      tag_20\n      jump\t// in\n    tag_29:\n      mload(0x40)\n      dup1\n      swap2\n      sub\n      swap1\n      return\n        /* \"FundMe.sol\":492:700  function fund() public payable {... */\n    tag_6:\n      tag_30\n      tag_12\n      jump\t// in\n    tag_30:\n      stop\n        /* \"FundMe.sol\":396:428  address public immutable i_owner */\n    tag_7:\n      callvalue\n      dup1\n      iszero\n      tag_31\n      jumpi\n      0x00\n      dup1\n      revert\n    tag_31:\n      pop\n      tag_32\n      tag_33\n      jump\t// in\n    tag_32:\n      mload(0x40)\n      tag_34\n      swap2\n      swap1\n      tag_35\n      jump\t// in\n    tag_34:\n      mload(0x40)\n      dup1\n      swap2\n      sub\n      swap1\n      return\n        /* \"FundMe.sol\":303:327  address[] public funders */\n    tag_8:\n      callvalue\n      dup1\n      iszero\n      tag_36\n      jumpi\n      0x00\n      dup1\n      revert\n    tag_36:\n      pop\n      tag_37\n      0x04\n      dup1\n      calldatasize\n      sub\n      dup2\n      add\n      swap1\n      tag_38\n      swap2\n      swap1\n      tag_39\n      jump\t// in\n    tag_38:\n      tag_40\n      jump\t// in\n    tag_37:\n      mload(0x40)\n      tag_41\n      swap2\n      swap1\n      tag_35\n      jump\t// in\n    tag_41:\n      mload(0x40)\n      dup1\n      swap2\n      sub\n      swap1\n      return\n        /* \"FundMe.sol\":492:700  function fund() public payable {... */\n    tag_12:\n        /* \"FundMe.sol\":287:296  50 * 1e18 */\n      0x02b5e3af16b1880000\n        /* \"FundMe.sol\":541:570  msg.value.getConversionRate() */\n      tag_43\n        /* \"FundMe.sol\":541:550  msg.value */\n      callvalue\n        /* \"FundMe.sol\":541:568  msg.value.getConversionRate */\n      tag_44\n        /* \"FundMe.sol\":541:570  msg.value.getConversionRate() */\n      jump\t// in\n    tag_43:\n        /* \"FundMe.sol\":541:581  msg.value.getConversionRate() >= MIN_USD */\n      lt\n      iszero\n        /* \"FundMe.sol\":533:604  require(msg.value.getConversionRate() >= MIN_USD, \"Didn't send enough\") */\n      tag_45\n      jumpi\n      mload(0x40)\n      0x08c379a000000000000000000000000000000000000000000000000000000000\n      dup2\n      mstore\n      0x04\n      add\n      tag_46\n      swap1\n      tag_47\n      jump\t// in\n    tag_46:\n      mload(0x40)\n      dup1\n      swap2\n      sub\n      swap1\n      revert\n    tag_45:\n        /* \"FundMe.sol\":614:621  funders */\n      0x00\n        /* \"FundMe.sol\":627:637  msg.sender */\n      caller\n        /* \"FundMe.sol\":614:638  funders.push(msg.sender) */\n      swap1\n      dup1\n      0x01\n      dup2\n      sload\n      add\n      dup1\n      dup3\n      sstore\n      dup1\n      swap2\n      pop\n      pop\n      0x01\n      swap1\n      sub\n      swap1\n      0x00\n      mstore\n      keccak256(0x00, 0x20)\n      add\n      0x00\n      swap1\n      swap2\n      swap1\n      swap2\n      swap1\n      swap2\n      0x0100\n      exp\n      dup2\n      sload\n      dup2\n      0xffffffffffffffffffffffffffffffffffffffff\n      mul\n      not\n      and\n      swap1\n      dup4\n      0xffffffffffffffffffffffffffffffffffffffff\n      and\n      mul\n      or\n      swap1\n      sstore\n      pop\n        /* \"FundMe.sol\":684:693  msg.value */\n      callvalue\n        /* \"FundMe.sol\":648:669  addressToAmountFunded */\n      0x01\n        /* \"FundMe.sol\":648:681  addressToAmountFunded[msg.sender] */\n      0x00\n        /* \"FundMe.sol\":670:680  msg.sender */\n      caller\n        /* \"FundMe.sol\":648:681  addressToAmountFunded[msg.sender] */\n      0xffffffffffffffffffffffffffffffffffffffff\n      and\n      0xffffffffffffffffffffffffffffffffffffffff\n      and\n      dup2\n      mstore\n      0x20\n      add\n      swap1\n      dup2\n      mstore\n      0x20\n      add\n      0x00\n      keccak256\n        /* \"FundMe.sol\":648:693  addressToAmountFunded[msg.sender] = msg.value */\n      dup2\n      swap1\n      sstore\n      pop\n        /* \"FundMe.sol\":492:700  function fund() public payable {... */\n      jump\t// out\n        /* \"FundMe.sol\":253:296  uint256 public constant MIN_USD = 50 * 1e18 */\n    tag_18:\n        /* \"FundMe.sol\":287:296  50 * 1e18 */\n      0x02b5e3af16b1880000\n        /* \"FundMe.sol\":253:296  uint256 public constant MIN_USD = 50 * 1e18 */\n      dup2\n      jump\t// out\n        /* \"FundMe.sol\":706:1099  function withdraw() public onlyOwner {... */\n    tag_23:\n        /* \"FundMe.sol\":1219:1226  i_owner */\n      immutable(\"0xeafa31dc210956fc0884ec5660eba9405197797219cbbda41b6aaf7118c651d8\")\n        /* \"FundMe.sol\":1205:1226  msg.sender != i_owner */\n      0xffffffffffffffffffffffffffffffffffffffff\n      and\n        /* \"FundMe.sol\":1205:1215  msg.sender */\n      caller\n        /* \"FundMe.sol\":1205:1226  msg.sender != i_owner */\n      0xffffffffffffffffffffffffffffffffffffffff\n      and\n      eq\n        /* \"FundMe.sol\":1201:1250  if (msg.sender != i_owner) { revert NotOwner(); } */\n      tag_50\n      jumpi\n        /* \"FundMe.sol\":1237:1247  NotOwner() */\n      mload(0x40)\n      0x30cd747100000000000000000000000000000000000000000000000000000000\n      dup2\n      mstore\n      0x04\n      add\n      mload(0x40)\n      dup1\n      swap2\n      sub\n      swap1\n      revert\n        /* \"FundMe.sol\":1201:1250  if (msg.sender != i_owner) { revert NotOwner(); } */\n    tag_50:\n        /* \"FundMe.sol\":758:773  uint256 funderI */\n      0x00\n        /* \"FundMe.sol\":753:921  for (uint256 funderI = 0; funderI < funders.length; funderI++) {... */\n    tag_52:\n        /* \"FundMe.sol\":789:796  funders */\n      0x00\n        /* \"FundMe.sol\":789:803  funders.length */\n      dup1\n      sload\n      swap1\n      pop\n        /* \"FundMe.sol\":779:786  funderI */\n      dup2\n        /* \"FundMe.sol\":779:803  funderI < funders.length */\n      lt\n        /* \"FundMe.sol\":753:921  for (uint256 funderI = 0; funderI < funders.length; funderI++) {... */\n      iszero\n      tag_53\n      jumpi\n        /* \"FundMe.sol\":830:844  address funder */\n      0x00\n        /* \"FundMe.sol\":847:854  funders */\n      dup1\n        /* \"FundMe.sol\":855:862  funderI */\n      dup3\n        /* \"FundMe.sol\":847:863  funders[funderI] */\n      dup2\n      sload\n      dup2\n      lt\n      tag_55\n      jumpi\n      tag_56\n      tag_57\n      jump\t// in\n    tag_56:\n    tag_55:\n      swap1\n      0x00\n      mstore\n      keccak256(0x00, 0x20)\n      add\n      0x00\n      swap1\n      sload\n      swap1\n      0x0100\n      exp\n      swap1\n      div\n      0xffffffffffffffffffffffffffffffffffffffff\n      and\n        /* \"FundMe.sol\":830:863  address funder = funders[funderI] */\n      swap1\n      pop\n        /* \"FundMe.sol\":909:910  0 */\n      0x00\n        /* \"FundMe.sol\":877:898  addressToAmountFunded */\n      0x01\n        /* \"FundMe.sol\":877:906  addressToAmountFunded[funder] */\n      0x00\n        /* \"FundMe.sol\":899:905  funder */\n      dup4\n        /* \"FundMe.sol\":877:906  addressToAmountFunded[funder] */\n      0xffffffffffffffffffffffffffffffffffffffff\n      and\n      0xffffffffffffffffffffffffffffffffffffffff\n      and\n      dup2\n      mstore\n      0x20\n      add\n      swap1\n      dup2\n      mstore\n      0x20\n      add\n      0x00\n      keccak256\n        /* \"FundMe.sol\":877:910  addressToAmountFunded[funder] = 0 */\n      dup2\n      swap1\n      sstore\n      pop\n        /* \"FundMe.sol\":816:921  {... */\n      pop\n        /* \"FundMe.sol\":805:814  funderI++ */\n      dup1\n      dup1\n      0x01\n      add\n      swap2\n      pop\n      pop\n        /* \"FundMe.sol\":753:921  for (uint256 funderI = 0; funderI < funders.length; funderI++) {... */\n      jump(tag_52)\n    tag_53:\n      pop\n        /* \"FundMe.sol\":954:955  0 */\n      0x00\n        /* \"FundMe.sol\":940:956  new address[](0) */\n      0xffffffffffffffff\n      dup2\n      gt\n      iszero\n      tag_59\n      jumpi\n      tag_60\n      tag_61\n      jump\t// in\n    tag_60:\n    tag_59:\n      mload(0x40)\n      swap1\n      dup1\n      dup3\n      mstore\n      dup1\n      0x20\n      mul\n      0x20\n      add\n      dup3\n      add\n      0x40\n      mstore\n      dup1\n      iszero\n      tag_62\n      jumpi\n      dup2\n      0x20\n      add\n      0x20\n      dup3\n      mul\n      dup1\n      calldatasize\n      dup4\n      calldatacopy\n      dup1\n      dup3\n      add\n      swap2\n      pop\n      pop\n      swap1\n      pop\n    tag_62:\n      pop\n        /* \"FundMe.sol\":930:937  funders */\n      0x00\n        /* \"FundMe.sol\":930:956  funders = new address[](0) */\n      swap1\n      dup1\n      mload\n      swap1\n      0x20\n      add\n      swap1\n      tag_63\n      swap3\n      swap2\n      swap1\n      tag_64\n      jump\t// in\n    tag_63:\n      pop\n        /* \"FundMe.sol\":967:983  bool callSuccess */\n      0x00\n        /* \"FundMe.sol\":997:1007  msg.sender */\n      caller\n        /* \"FundMe.sol\":989:1013  payable(msg.sender).call */\n      0xffffffffffffffffffffffffffffffffffffffff\n      and\n        /* \"FundMe.sol\":1021:1042  address(this).balance */\n      selfbalance\n        /* \"FundMe.sol\":989:1047  payable(msg.sender).call{value: address(this).balance}(\"\") */\n      mload(0x40)\n      tag_65\n      swap1\n      tag_66\n      jump\t// in\n    tag_65:\n      0x00\n      mload(0x40)\n      dup1\n      dup4\n      sub\n      dup2\n      dup6\n      dup8\n      gas\n      call\n      swap3\n      pop\n      pop\n      pop\n      returndatasize\n      dup1\n      0x00\n      dup2\n      eq\n      tag_69\n      jumpi\n      mload(0x40)\n      swap2\n      pop\n      and(add(returndatasize, 0x3f), not(0x1f))\n      dup3\n      add\n      0x40\n      mstore\n      returndatasize\n      dup3\n      mstore\n      returndatasize\n      0x00\n      0x20\n      dup5\n      add\n      returndatacopy\n      jump(tag_68)\n    tag_69:\n      0x60\n      swap2\n      pop\n    tag_68:\n      pop\n        /* \"FundMe.sol\":966:1047  (bool callSuccess, ) = payable(msg.sender).call{value: address(this).balance}(\"\") */\n      pop\n      swap1\n      pop\n        /* \"FundMe.sol\":1065:1076  callSuccess */\n      dup1\n        /* \"FundMe.sol\":1057:1092  require(callSuccess, \"Call failed\") */\n      tag_70\n      jumpi\n      mload(0x40)\n      0x08c379a000000000000000000000000000000000000000000000000000000000\n      dup2\n      mstore\n      0x04\n      add\n      tag_71\n      swap1\n      tag_72\n      jump\t// in\n    tag_71:\n      mload(0x40)\n      dup1\n      swap2\n      sub\n      swap1\n      revert\n    tag_70:\n        /* \"FundMe.sol\":743:1099  {... */\n      pop\n        /* \"FundMe.sol\":706:1099  function withdraw() public onlyOwner {... */\n      jump\t// out\n        /* \"FundMe.sol\":333:389  mapping(address => uint256) public addressToAmountFunded */\n    tag_28:\n      mstore(0x20, 0x01)\n      dup1\n      0x00\n      mstore\n      keccak256(0x00, 0x40)\n      0x00\n      swap2\n      pop\n      swap1\n      pop\n      sload\n      dup2\n      jump\t// out\n        /* \"FundMe.sol\":396:428  address public immutable i_owner */\n    tag_33:\n      immutable(\"0xeafa31dc210956fc0884ec5660eba9405197797219cbbda41b6aaf7118c651d8\")\n      dup2\n      jump\t// out\n        /* \"FundMe.sol\":303:327  address[] public funders */\n    tag_40:\n      0x00\n      dup2\n      dup2\n      sload\n      dup2\n      lt\n      tag_73\n      jumpi\n      0x00\n      dup1\n      revert\n    tag_73:\n      swap1\n      0x00\n      mstore\n      keccak256(0x00, 0x20)\n      add\n      0x00\n      swap2\n      pop\n      sload\n      swap1\n      0x0100\n      exp\n      swap1\n      div\n      0xffffffffffffffffffffffffffffffffffffffff\n      and\n      dup2\n      jump\t// out\n        /* \"PriceConverter.sol\":761:981  function getConversionRate(uint256 ethAmount) internal view returns (uint256) {... */\n    tag_44:\n        /* \"PriceConverter.sol\":830:837  uint256 */\n      0x00\n        /* \"PriceConverter.sol\":849:865  uint256 ethPrice */\n      dup1\n        /* \"PriceConverter.sol\":868:878  getPrice() */\n      tag_76\n        /* \"PriceConverter.sol\":868:876  getPrice */\n      tag_77\n        /* \"PriceConverter.sol\":868:878  getPrice() */\n      jump\t// in\n    tag_76:\n        /* \"PriceConverter.sol\":849:878  uint256 ethPrice = getPrice() */\n      swap1\n      pop\n        /* \"PriceConverter.sol\":888:910  uint256 ethAmountInUsd */\n      0x00\n        /* \"PriceConverter.sol\":938:942  1e18 */\n      0x0de0b6b3a7640000\n        /* \"PriceConverter.sol\":925:934  ethAmount */\n      dup5\n        /* \"PriceConverter.sol\":914:922  ethPrice */\n      dup4\n        /* \"PriceConverter.sol\":914:934  ethPrice * ethAmount */\n      tag_78\n      swap2\n      swap1\n      tag_79\n      jump\t// in\n    tag_78:\n        /* \"PriceConverter.sol\":913:942  (ethPrice * ethAmount) / 1e18 */\n      tag_80\n      swap2\n      swap1\n      tag_81\n      jump\t// in\n    tag_80:\n        /* \"PriceConverter.sol\":888:942  uint256 ethAmountInUsd = (ethPrice * ethAmount) / 1e18 */\n      swap1\n      pop\n        /* \"PriceConverter.sol\":960:974  ethAmountInUsd */\n      dup1\n        /* \"PriceConverter.sol\":952:974  return  ethAmountInUsd */\n      swap3\n      pop\n      pop\n      pop\n        /* \"PriceConverter.sol\":761:981  function getConversionRate(uint256 ethAmount) internal view returns (uint256) {... */\n      swap2\n      swap1\n      pop\n      jump\t// out\n        /* \"PriceConverter.sol\":204:542  function getPrice() internal view returns (uint256) {... */\n    tag_77:\n        /* \"PriceConverter.sol\":247:254  uint256 */\n      0x00\n        /* \"PriceConverter.sol\":343:374  AggregatorV3Interface priceFeed */\n      dup1\n        /* \"PriceConverter.sol\":399:441  0x694AA1769357215DE4FAC081bf1f309aDC325306 */\n      0x694aa1769357215de4fac081bf1f309adc325306\n        /* \"PriceConverter.sol\":343:442  AggregatorV3Interface priceFeed = AggregatorV3Interface(0x694AA1769357215DE4FAC081bf1f309aDC325306) */\n      swap1\n      pop\n        /* \"PriceConverter.sol\":454:463  int price */\n      0x00\n        /* \"PriceConverter.sol\":470:479  priceFeed */\n      dup2\n        /* \"PriceConverter.sol\":470:495  priceFeed.latestRoundData */\n      0xffffffffffffffffffffffffffffffffffffffff\n      and\n      0xfeaf968c\n        /* \"PriceConverter.sol\":470:497  priceFeed.latestRoundData() */\n      mload(0x40)\n      dup2\n      0xffffffff\n      and\n      0xe0\n      shl\n      dup2\n      mstore\n      0x04\n      add\n      0xa0\n      mload(0x40)\n      dup1\n      dup4\n      sub\n      dup2\n      dup7\n      gas\n      staticcall\n      iszero\n      dup1\n      iszero\n      tag_84\n      jumpi\n      returndatasize\n      0x00\n      dup1\n      returndatacopy\n      revert(0x00, returndatasize)\n    tag_84:\n      pop\n      pop\n      pop\n      pop\n      mload(0x40)\n      returndatasize\n      not(0x1f)\n      0x1f\n      dup3\n      add\n      and\n      dup3\n      add\n      dup1\n      0x40\n      mstore\n      pop\n      dup2\n      add\n      swap1\n      tag_85\n      swap2\n      swap1\n      tag_86\n      jump\t// in\n    tag_85:\n        /* \"PriceConverter.sol\":452:497  (,int price,,,) = priceFeed.latestRoundData() */\n      pop\n      pop\n      pop\n      swap2\n      pop\n      pop\n        /* \"PriceConverter.sol\":530:534  1e10 */\n      0x02540be400\n        /* \"PriceConverter.sol\":522:527  price */\n      dup2\n        /* \"PriceConverter.sol\":522:534  price * 1e10 */\n      tag_87\n      swap2\n      swap1\n      tag_88\n      jump\t// in\n    tag_87:\n        /* \"PriceConverter.sol\":507:535  return uint256(price * 1e10) */\n      swap3\n      pop\n      pop\n      pop\n        /* \"PriceConverter.sol\":204:542  function getPrice() internal view returns (uint256) {... */\n      swap1\n      jump\t// out\n    tag_64:\n      dup3\n      dup1\n      sload\n      dup3\n      dup3\n      sstore\n      swap1\n      0x00\n      mstore\n      keccak256(0x00, 0x20)\n      swap1\n      dup2\n      add\n      swap3\n      dup3\n      iszero\n      tag_89\n      jumpi\n      swap2\n      0x20\n      mul\n      dup3\n      add\n    tag_90:\n      dup3\n      dup2\n      gt\n      iszero\n      tag_91\n      jumpi\n      dup3\n      mload\n      dup3\n      exp(0x0100, 0x00)\n      dup2\n      sload\n      dup2\n      0xffffffffffffffffffffffffffffffffffffffff\n      mul\n      not\n      and\n      swap1\n      dup4\n      0xffffffffffffffffffffffffffffffffffffffff\n      and\n      mul\n      or\n      swap1\n      sstore\n      pop\n      swap2\n      0x20\n      add\n      swap2\n      swap1\n      0x01\n      add\n      swap1\n      jump(tag_90)\n    tag_91:\n    tag_89:\n      pop\n      swap1\n      pop\n      tag_92\n      swap2\n      swap1\n      tag_93\n      jump\t// in\n    tag_92:\n      pop\n      swap1\n      jump\t// out\n    tag_93:\n    tag_94:\n      dup1\n      dup3\n      gt\n      iszero\n      tag_95\n      jumpi\n      0x00\n      dup2\n      0x00\n      swap1\n      sstore\n      pop\n      0x01\n      add\n      jump(tag_94)\n    tag_95:\n      pop\n      swap1\n      jump\t// out\n        /* \"#utility.yul\":7:84   */\n    tag_96:\n        /* \"#utility.yul\":44:51   */\n      0x00\n        /* \"#utility.yul\":73:78   */\n      dup2\n        /* \"#utility.yul\":62:78   */\n      swap1\n      pop\n        /* \"#utility.yul\":7:84   */\n      swap2\n      swap1\n      pop\n      jump\t// out\n        /* \"#utility.yul\":90:208   */\n    tag_97:\n        /* \"#utility.yul\":177:201   */\n      tag_128\n        /* \"#utility.yul\":195:200   */\n      dup2\n        /* \"#utility.yul\":177:201   */\n      tag_96\n      jump\t// in\n    tag_128:\n        /* \"#utility.yul\":172:175   */\n      dup3\n        /* \"#utility.yul\":165:202   */\n      mstore\n        /* \"#utility.yul\":90:208   */\n      pop\n      pop\n      jump\t// out\n        /* \"#utility.yul\":214:436   */\n    tag_20:\n        /* \"#utility.yul\":307:311   */\n      0x00\n        /* \"#utility.yul\":345:347   */\n      0x20\n        /* \"#utility.yul\":334:343   */\n      dup3\n        /* \"#utility.yul\":330:348   */\n      add\n        /* \"#utility.yul\":322:348   */\n      swap1\n      pop\n        /* \"#utility.yul\":358:429   */\n      tag_130\n        /* \"#utility.yul\":426:427   */\n      0x00\n        /* \"#utility.yul\":415:424   */\n      dup4\n        /* \"#utility.yul\":411:428   */\n      add\n        /* \"#utility.yul\":402:408   */\n      dup5\n        /* \"#utility.yul\":358:429   */\n      tag_97\n      jump\t// in\n    tag_130:\n        /* \"#utility.yul\":214:436   */\n      swap3\n      swap2\n      pop\n      pop\n      jump\t// out\n        /* \"#utility.yul\":523:640   */\n    tag_99:\n        /* \"#utility.yul\":632:633   */\n      0x00\n        /* \"#utility.yul\":629:630   */\n      dup1\n        /* \"#utility.yul\":622:634   */\n      revert\n        /* \"#utility.yul\":769:895   */\n    tag_101:\n        /* \"#utility.yul\":806:813   */\n      0x00\n        /* \"#utility.yul\":846:888   */\n      0xffffffffffffffffffffffffffffffffffffffff\n        /* \"#utility.yul\":839:844   */\n      dup3\n        /* \"#utility.yul\":835:889   */\n      and\n        /* \"#utility.yul\":824:889   */\n      swap1\n      pop\n        /* \"#utility.yul\":769:895   */\n      swap2\n      swap1\n      pop\n      jump\t// out\n        /* \"#utility.yul\":901:997   */\n    tag_102:\n        /* \"#utility.yul\":938:945   */\n      0x00\n        /* \"#utility.yul\":967:991   */\n      tag_136\n        /* \"#utility.yul\":985:990   */\n      dup3\n        /* \"#utility.yul\":967:991   */\n      tag_101\n      jump\t// in\n    tag_136:\n        /* \"#utility.yul\":956:991   */\n      swap1\n      pop\n        /* \"#utility.yul\":901:997   */\n      swap2\n      swap1\n      pop\n      jump\t// out\n        /* \"#utility.yul\":1003:1125   */\n    tag_103:\n        /* \"#utility.yul\":1076:1100   */\n      tag_138\n        /* \"#utility.yul\":1094:1099   */\n      dup2\n        /* \"#utility.yul\":1076:1100   */\n      tag_102\n      jump\t// in\n    tag_138:\n        /* \"#utility.yul\":1069:1074   */\n      dup2\n        /* \"#utility.yul\":1066:1101   */\n      eq\n        /* \"#utility.yul\":1056:1119   */\n      tag_139\n      jumpi\n        /* \"#utility.yul\":1115:1116   */\n      0x00\n        /* \"#utility.yul\":1112:1113   */\n      dup1\n        /* \"#utility.yul\":1105:1117   */\n      revert\n        /* \"#utility.yul\":1056:1119   */\n    tag_139:\n        /* \"#utility.yul\":1003:1125   */\n      pop\n      jump\t// out\n        /* \"#utility.yul\":1131:1270   */\n    tag_104:\n        /* \"#utility.yul\":1177:1182   */\n      0x00\n        /* \"#utility.yul\":1215:1221   */\n      dup2\n        /* \"#utility.yul\":1202:1222   */\n      calldataload\n        /* \"#utility.yul\":1193:1222   */\n      swap1\n      pop\n        /* \"#utility.yul\":1231:1264   */\n      tag_141\n        /* \"#utility.yul\":1258:1263   */\n      dup2\n        /* \"#utility.yul\":1231:1264   */\n      tag_103\n      jump\t// in\n    tag_141:\n        /* \"#utility.yul\":1131:1270   */\n      swap3\n      swap2\n      pop\n      pop\n      jump\t// out\n        /* \"#utility.yul\":1276:1605   */\n    tag_27:\n        /* \"#utility.yul\":1335:1341   */\n      0x00\n        /* \"#utility.yul\":1384:1386   */\n      0x20\n        /* \"#utility.yul\":1372:1381   */\n      dup3\n        /* \"#utility.yul\":1363:1370   */\n      dup5\n        /* \"#utility.yul\":1359:1382   */\n      sub\n        /* \"#utility.yul\":1355:1387   */\n      slt\n        /* \"#utility.yul\":1352:1471   */\n      iszero\n      tag_143\n      jumpi\n        /* \"#utility.yul\":1390:1469   */\n      tag_144\n      tag_99\n      jump\t// in\n    tag_144:\n        /* \"#utility.yul\":1352:1471   */\n    tag_143:\n        /* \"#utility.yul\":1510:1511   */\n      0x00\n        /* \"#utility.yul\":1535:1588   */\n      tag_145\n        /* \"#utility.yul\":1580:1587   */\n      dup5\n        /* \"#utility.yul\":1571:1577   */\n      dup3\n        /* \"#utility.yul\":1560:1569   */\n      dup6\n        /* \"#utility.yul\":1556:1578   */\n      add\n        /* \"#utility.yul\":1535:1588   */\n      tag_104\n      jump\t// in\n    tag_145:\n        /* \"#utility.yul\":1525:1588   */\n      swap2\n      pop\n        /* \"#utility.yul\":1481:1598   */\n      pop\n        /* \"#utility.yul\":1276:1605   */\n      swap3\n      swap2\n      pop\n      pop\n      jump\t// out\n        /* \"#utility.yul\":1611:1729   */\n    tag_105:\n        /* \"#utility.yul\":1698:1722   */\n      tag_147\n        /* \"#utility.yul\":1716:1721   */\n      dup2\n        /* \"#utility.yul\":1698:1722   */\n      tag_102\n      jump\t// in\n    tag_147:\n        /* \"#utility.yul\":1693:1696   */\n      dup3\n        /* \"#utility.yul\":1686:1723   */\n      mstore\n        /* \"#utility.yul\":1611:1729   */\n      pop\n      pop\n      jump\t// out\n        /* \"#utility.yul\":1735:1957   */\n    tag_35:\n        /* \"#utility.yul\":1828:1832   */\n      0x00\n        /* \"#utility.yul\":1866:1868   */\n      0x20\n        /* \"#utility.yul\":1855:1864   */\n      dup3\n        /* \"#utility.yul\":1851:1869   */\n      add\n        /* \"#utility.yul\":1843:1869   */\n      swap1\n      pop\n        /* \"#utility.yul\":1879:1950   */\n      tag_149\n        /* \"#utility.yul\":1947:1948   */\n      0x00\n        /* \"#utility.yul\":1936:1945   */\n      dup4\n        /* \"#utility.yul\":1932:1949   */\n      add\n        /* \"#utility.yul\":1923:1929   */\n      dup5\n        /* \"#utility.yul\":1879:1950   */\n      tag_105\n      jump\t// in\n    tag_149:\n        /* \"#utility.yul\":1735:1957   */\n      swap3\n      swap2\n      pop\n      pop\n      jump\t// out\n        /* \"#utility.yul\":1963:2085   */\n    tag_106:\n        /* \"#utility.yul\":2036:2060   */\n      tag_151\n        /* \"#utility.yul\":2054:2059   */\n      dup2\n        /* \"#utility.yul\":2036:2060   */\n      tag_96\n      jump\t// in\n    tag_151:\n        /* \"#utility.yul\":2029:2034   */\n      dup2\n        /* \"#utility.yul\":2026:2061   */\n      eq\n        /* \"#utility.yul\":2016:2079   */\n      tag_152\n      jumpi\n        /* \"#utility.yul\":2075:2076   */\n      0x00\n        /* \"#utility.yul\":2072:2073   */\n      dup1\n        /* \"#utility.yul\":2065:2077   */\n      revert\n        /* \"#utility.yul\":2016:2079   */\n    tag_152:\n        /* \"#utility.yul\":1963:2085   */\n      pop\n      jump\t// out\n        /* \"#utility.yul\":2091:2230   */\n    tag_107:\n        /* \"#utility.yul\":2137:2142   */\n      0x00\n        /* \"#utility.yul\":2175:2181   */\n      dup2\n        /* \"#utility.yul\":2162:2182   */\n      calldataload\n        /* \"#utility.yul\":2153:2182   */\n      swap1\n      pop\n        /* \"#utility.yul\":2191:2224   */\n      tag_154\n        /* \"#utility.yul\":2218:2223   */\n      dup2\n        /* \"#utility.yul\":2191:2224   */\n      tag_106\n      jump\t// in\n    tag_154:\n        /* \"#utility.yul\":2091:2230   */\n      swap3\n      swap2\n      pop\n      pop\n      jump\t// out\n        /* \"#utility.yul\":2236:2565   */\n    tag_39:\n        /* \"#utility.yul\":2295:2301   */\n      0x00\n        /* \"#utility.yul\":2344:2346   */\n      0x20\n        /* \"#utility.yul\":2332:2341   */\n      dup3\n        /* \"#utility.yul\":2323:2330   */\n      dup5\n        /* \"#utility.yul\":2319:2342   */\n      sub\n        /* \"#utility.yul\":2315:2347   */\n      slt\n        /* \"#utility.yul\":2312:2431   */\n      iszero\n      tag_156\n      jumpi\n        /* \"#utility.yul\":2350:2429   */\n      tag_157\n      tag_99\n      jump\t// in\n    tag_157:\n        /* \"#utility.yul\":2312:2431   */\n    tag_156:\n        /* \"#utility.yul\":2470:2471   */\n      0x00\n        /* \"#utility.yul\":2495:2548   */\n      tag_158\n        /* \"#utility.yul\":2540:2547   */\n      dup5\n        /* \"#utility.yul\":2531:2537   */\n      dup3\n        /* \"#utility.yul\":2520:2529   */\n      dup6\n        /* \"#utility.yul\":2516:2538   */\n      add\n        /* \"#utility.yul\":2495:2548   */\n      tag_107\n      jump\t// in\n    tag_158:\n        /* \"#utility.yul\":2485:2548   */\n      swap2\n      pop\n        /* \"#utility.yul\":2441:2558   */\n      pop\n        /* \"#utility.yul\":2236:2565   */\n      swap3\n      swap2\n      pop\n      pop\n      jump\t// out\n        /* \"#utility.yul\":2571:2740   */\n    tag_108:\n        /* \"#utility.yul\":2655:2666   */\n      0x00\n        /* \"#utility.yul\":2689:2695   */\n      dup3\n        /* \"#utility.yul\":2684:2687   */\n      dup3\n        /* \"#utility.yul\":2677:2696   */\n      mstore\n        /* \"#utility.yul\":2729:2733   */\n      0x20\n        /* \"#utility.yul\":2724:2727   */\n      dup3\n        /* \"#utility.yul\":2720:2734   */\n      add\n        /* \"#utility.yul\":2705:2734   */\n      swap1\n      pop\n        /* \"#utility.yul\":2571:2740   */\n      swap3\n      swap2\n      pop\n      pop\n      jump\t// out\n        /* \"#utility.yul\":2746:2914   */\n    tag_109:\n        /* \"#utility.yul\":2886:2906   */\n      0x4469646e27742073656e6420656e6f7567680000000000000000000000000000\n        /* \"#utility.yul\":2882:2883   */\n      0x00\n        /* \"#utility.yul\":2874:2880   */\n      dup3\n        /* \"#utility.yul\":2870:2884   */\n      add\n        /* \"#utility.yul\":2863:2907   */\n      mstore\n        /* \"#utility.yul\":2746:2914   */\n      pop\n      jump\t// out\n        /* \"#utility.yul\":2920:3286   */\n    tag_110:\n        /* \"#utility.yul\":3062:3065   */\n      0x00\n        /* \"#utility.yul\":3083:3150   */\n      tag_162\n        /* \"#utility.yul\":3147:3149   */\n      0x12\n        /* \"#utility.yul\":3142:3145   */\n      dup4\n        /* \"#utility.yul\":3083:3150   */\n      tag_108\n      jump\t// in\n    tag_162:\n        /* \"#utility.yul\":3076:3150   */\n      swap2\n      pop\n        /* \"#utility.yul\":3159:3252   */\n      tag_163\n        /* \"#utility.yul\":3248:3251   */\n      dup3\n        /* \"#utility.yul\":3159:3252   */\n      tag_109\n      jump\t// in\n    tag_163:\n        /* \"#utility.yul\":3277:3279   */\n      0x20\n        /* \"#utility.yul\":3272:3275   */\n      dup3\n        /* \"#utility.yul\":3268:3280   */\n      add\n        /* \"#utility.yul\":3261:3280   */\n      swap1\n      pop\n        /* \"#utility.yul\":2920:3286   */\n      swap2\n      swap1\n      pop\n      jump\t// out\n        /* \"#utility.yul\":3292:3711   */\n    tag_47:\n        /* \"#utility.yul\":3458:3462   */\n      0x00\n        /* \"#utility.yul\":3496:3498   */\n      0x20\n        /* \"#utility.yul\":3485:3494   */\n      dup3\n        /* \"#utility.yul\":3481:3499   */\n      add\n        /* \"#utility.yul\":3473:3499   */\n      swap1\n      pop\n        /* \"#utility.yul\":3545:3554   */\n      dup2\n        /* \"#utility.yul\":3539:3543   */\n      dup2\n        /* \"#utility.yul\":3535:3555   */\n      sub\n        /* \"#utility.yul\":3531:3532   */\n      0x00\n        /* \"#utility.yul\":3520:3529   */\n      dup4\n        /* \"#utility.yul\":3516:3533   */\n      add\n        /* \"#utility.yul\":3509:3556   */\n      mstore\n        /* \"#utility.yul\":3573:3704   */\n      tag_165\n        /* \"#utility.yul\":3699:3703   */\n      dup2\n        /* \"#utility.yul\":3573:3704   */\n      tag_110\n      jump\t// in\n    tag_165:\n        /* \"#utility.yul\":3565:3704   */\n      swap1\n      pop\n        /* \"#utility.yul\":3292:3711   */\n      swap2\n      swap1\n      pop\n      jump\t// out\n        /* \"#utility.yul\":3717:3897   */\n    tag_57:\n        /* \"#utility.yul\":3765:3842   */\n      0x4e487b7100000000000000000000000000000000000000000000000000000000\n        /* \"#utility.yul\":3762:3763   */\n      0x00\n        /* \"#utility.yul\":3755:3843   */\n      mstore\n        /* \"#utility.yul\":3862:3866   */\n      0x32\n        /* \"#utility.yul\":3859:3860   */\n      0x04\n        /* \"#utility.yul\":3852:3867   */\n      mstore\n        /* \"#utility.yul\":3886:3890   */\n      0x24\n        /* \"#utility.yul\":3883:3884   */\n      0x00\n        /* \"#utility.yul\":3876:3891   */\n      revert\n        /* \"#utility.yul\":3903:4083   */\n    tag_61:\n        /* \"#utility.yul\":3951:4028   */\n      0x4e487b7100000000000000000000000000000000000000000000000000000000\n        /* \"#utility.yul\":3948:3949   */\n      0x00\n        /* \"#utility.yul\":3941:4029   */\n      mstore\n        /* \"#utility.yul\":4048:4052   */\n      0x41\n        /* \"#utility.yul\":4045:4046   */\n      0x04\n        /* \"#utility.yul\":4038:4053   */\n      mstore\n        /* \"#utility.yul\":4072:4076   */\n      0x24\n        /* \"#utility.yul\":4069:4070   */\n      0x00\n        /* \"#utility.yul\":4062:4077   */\n      revert\n        /* \"#utility.yul\":4089:4236   */\n    tag_111:\n        /* \"#utility.yul\":4190:4201   */\n      0x00\n        /* \"#utility.yul\":4227:4230   */\n      dup2\n        /* \"#utility.yul\":4212:4230   */\n      swap1\n      pop\n        /* \"#utility.yul\":4089:4236   */\n      swap3\n      swap2\n      pop\n      pop\n      jump\t// out\n        /* \"#utility.yul\":4242:4356   */\n    tag_112:\n      pop\n      jump\t// out\n        /* \"#utility.yul\":4362:4760   */\n    tag_113:\n        /* \"#utility.yul\":4521:4524   */\n      0x00\n        /* \"#utility.yul\":4542:4625   */\n      tag_171\n        /* \"#utility.yul\":4623:4624   */\n      0x00\n        /* \"#utility.yul\":4618:4621   */\n      dup4\n        /* \"#utility.yul\":4542:4625   */\n      tag_111\n      jump\t// in\n    tag_171:\n        /* \"#utility.yul\":4535:4625   */\n      swap2\n      pop\n        /* \"#utility.yul\":4634:4727   */\n      tag_172\n        /* \"#utility.yul\":4723:4726   */\n      dup3\n        /* \"#utility.yul\":4634:4727   */\n      tag_112\n      jump\t// in\n    tag_172:\n        /* \"#utility.yul\":4752:4753   */\n      0x00\n        /* \"#utility.yul\":4747:4750   */\n      dup3\n        /* \"#utility.yul\":4743:4754   */\n      add\n        /* \"#utility.yul\":4736:4754   */\n      swap1\n      pop\n        /* \"#utility.yul\":4362:4760   */\n      swap2\n      swap1\n      pop\n      jump\t// out\n        /* \"#utility.yul\":4766:5145   */\n    tag_66:\n        /* \"#utility.yul\":4950:4953   */\n      0x00\n        /* \"#utility.yul\":4972:5119   */\n      tag_174\n        /* \"#utility.yul\":5115:5118   */\n      dup3\n        /* \"#utility.yul\":4972:5119   */\n      tag_113\n      jump\t// in\n    tag_174:\n        /* \"#utility.yul\":4965:5119   */\n      swap2\n      pop\n        /* \"#utility.yul\":5136:5139   */\n      dup2\n        /* \"#utility.yul\":5129:5139   */\n      swap1\n      pop\n        /* \"#utility.yul\":4766:5145   */\n      swap2\n      swap1\n      pop\n      jump\t// out\n        /* \"#utility.yul\":5151:5312   */\n    tag_114:\n        /* \"#utility.yul\":5291:5304   */\n      0x43616c6c206661696c6564000000000000000000000000000000000000000000\n        /* \"#utility.yul\":5287:5288   */\n      0x00\n        /* \"#utility.yul\":5279:5285   */\n      dup3\n        /* \"#utility.yul\":5275:5289   */\n      add\n        /* \"#utility.yul\":5268:5305   */\n      mstore\n        /* \"#utility.yul\":5151:5312   */\n      pop\n      jump\t// out\n        /* \"#utility.yul\":5318:5684   */\n    tag_115:\n        /* \"#utility.yul\":5460:5463   */\n      0x00\n        /* \"#utility.yul\":5481:5548   */\n      tag_177\n        /* \"#utility.yul\":5545:5547   */\n      0x0b\n        /* \"#utility.yul\":5540:5543   */\n      dup4\n        /* \"#utility.yul\":5481:5548   */\n      tag_108\n      jump\t// in\n    tag_177:\n        /* \"#utility.yul\":5474:5548   */\n      swap2\n      pop\n        /* \"#utility.yul\":5557:5650   */\n      tag_178\n        /* \"#utility.yul\":5646:5649   */\n      dup3\n        /* \"#utility.yul\":5557:5650   */\n      tag_114\n      jump\t// in\n    tag_178:\n        /* \"#utility.yul\":5675:5677   */\n      0x20\n        /* \"#utility.yul\":5670:5673   */\n      dup3\n        /* \"#utility.yul\":5666:5678   */\n      add\n        /* \"#utility.yul\":5659:5678   */\n      swap1\n      pop\n        /* \"#utility.yul\":5318:5684   */\n      swap2\n      swap1\n      pop\n      jump\t// out\n        /* \"#utility.yul\":5690:6109   */\n    tag_72:\n        /* \"#utility.yul\":5856:5860   */\n      0x00\n        /* \"#utility.yul\":5894:5896   */\n      0x20\n        /* \"#utility.yul\":5883:5892   */\n      dup3\n        /* \"#utility.yul\":5879:5897   */\n      add\n        /* \"#utility.yul\":5871:5897   */\n      swap1\n      pop\n        /* \"#utility.yul\":5943:5952   */\n      dup2\n        /* \"#utility.yul\":5937:5941   */\n      dup2\n        /* \"#utility.yul\":5933:5953   */\n      sub\n        /* \"#utility.yul\":5929:5930   */\n      0x00\n        /* \"#utility.yul\":5918:5927   */\n      dup4\n        /* \"#utility.yul\":5914:5931   */\n      add\n        /* \"#utility.yul\":5907:5954   */\n      mstore\n        /* \"#utility.yul\":5971:6102   */\n      tag_180\n        /* \"#utility.yul\":6097:6101   */\n      dup2\n        /* \"#utility.yul\":5971:6102   */\n      tag_115\n      jump\t// in\n    tag_180:\n        /* \"#utility.yul\":5963:6102   */\n      swap1\n      pop\n        /* \"#utility.yul\":5690:6109   */\n      swap2\n      swap1\n      pop\n      jump\t// out\n        /* \"#utility.yul\":6115:6295   */\n    tag_116:\n        /* \"#utility.yul\":6163:6240   */\n      0x4e487b7100000000000000000000000000000000000000000000000000000000\n        /* \"#utility.yul\":6160:6161   */\n      0x00\n        /* \"#utility.yul\":6153:6241   */\n      mstore\n        /* \"#utility.yul\":6260:6264   */\n      0x11\n        /* \"#utility.yul\":6257:6258   */\n      0x04\n        /* \"#utility.yul\":6250:6265   */\n      mstore\n        /* \"#utility.yul\":6284:6288   */\n      0x24\n        /* \"#utility.yul\":6281:6282   */\n      0x00\n        /* \"#utility.yul\":6274:6289   */\n      revert\n        /* \"#utility.yul\":6301:6711   */\n    tag_79:\n        /* \"#utility.yul\":6341:6348   */\n      0x00\n        /* \"#utility.yul\":6364:6384   */\n      tag_183\n        /* \"#utility.yul\":6382:6383   */\n      dup3\n        /* \"#utility.yul\":6364:6384   */\n      tag_96\n      jump\t// in\n    tag_183:\n        /* \"#utility.yul\":6359:6384   */\n      swap2\n      pop\n        /* \"#utility.yul\":6398:6418   */\n      tag_184\n        /* \"#utility.yul\":6416:6417   */\n      dup4\n        /* \"#utility.yul\":6398:6418   */\n      tag_96\n      jump\t// in\n    tag_184:\n        /* \"#utility.yul\":6393:6418   */\n      swap3\n      pop\n        /* \"#utility.yul\":6453:6454   */\n      dup3\n        /* \"#utility.yul\":6450:6451   */\n      dup3\n        /* \"#utility.yul\":6446:6455   */\n      mul\n        /* \"#utility.yul\":6475:6505   */\n      tag_185\n        /* \"#utility.yul\":6493:6504   */\n      dup2\n        /* \"#utility.yul\":6475:6505   */\n      tag_96\n      jump\t// in\n    tag_185:\n        /* \"#utility.yul\":6464:6505   */\n      swap2\n      pop\n        /* \"#utility.yul\":6654:6655   */\n      dup3\n        /* \"#utility.yul\":6645:6652   */\n      dup3\n        /* \"#utility.yul\":6641:6656   */\n      div\n        /* \"#utility.yul\":6638:6639   */\n      dup5\n        /* \"#utility.yul\":6635:6657   */\n      eq\n        /* \"#utility.yul\":6615:6616   */\n      dup4\n        /* \"#utility.yul\":6608:6617   */\n      iszero\n        /* \"#utility.yul\":6588:6671   */\n      or\n        /* \"#utility.yul\":6565:6704   */\n      tag_186\n      jumpi\n        /* \"#utility.yul\":6684:6702   */\n      tag_187\n      tag_116\n      jump\t// in\n    tag_187:\n        /* \"#utility.yul\":6565:6704   */\n    tag_186:\n        /* \"#utility.yul\":6349:6711   */\n      pop\n        /* \"#utility.yul\":6301:6711   */\n      swap3\n      swap2\n      pop\n      pop\n      jump\t// out\n        /* \"#utility.yul\":6717:6897   */\n    tag_117:\n        /* \"#utility.yul\":6765:6842   */\n      0x4e487b7100000000000000000000000000000000000000000000000000000000\n        /* \"#utility.yul\":6762:6763   */\n      0x00\n        /* \"#utility.yul\":6755:6843   */\n      mstore\n        /* \"#utility.yul\":6862:6866   */\n      0x12\n        /* \"#utility.yul\":6859:6860   */\n      0x04\n        /* \"#utility.yul\":6852:6867   */\n      mstore\n        /* \"#utility.yul\":6886:6890   */\n      0x24\n        /* \"#utility.yul\":6883:6884   */\n      0x00\n        /* \"#utility.yul\":6876:6891   */\n      revert\n        /* \"#utility.yul\":6903:7088   */\n    tag_81:\n        /* \"#utility.yul\":6943:6944   */\n      0x00\n        /* \"#utility.yul\":6960:6980   */\n      tag_190\n        /* \"#utility.yul\":6978:6979   */\n      dup3\n        /* \"#utility.yul\":6960:6980   */\n      tag_96\n      jump\t// in\n    tag_190:\n        /* \"#utility.yul\":6955:6980   */\n      swap2\n      pop\n        /* \"#utility.yul\":6994:7014   */\n      tag_191\n        /* \"#utility.yul\":7012:7013   */\n      dup4\n        /* \"#utility.yul\":6994:7014   */\n      tag_96\n      jump\t// in\n    tag_191:\n        /* \"#utility.yul\":6989:7014   */\n      swap3\n      pop\n        /* \"#utility.yul\":7033:7034   */\n      dup3\n        /* \"#utility.yul\":7023:7058   */\n      tag_192\n      jumpi\n        /* \"#utility.yul\":7038:7056   */\n      tag_193\n      tag_117\n      jump\t// in\n    tag_193:\n        /* \"#utility.yul\":7023:7058   */\n    tag_192:\n        /* \"#utility.yul\":7080:7081   */\n      dup3\n        /* \"#utility.yul\":7077:7078   */\n      dup3\n        /* \"#utility.yul\":7073:7082   */\n      div\n        /* \"#utility.yul\":7068:7082   */\n      swap1\n      pop\n        /* \"#utility.yul\":6903:7088   */\n      swap3\n      swap2\n      pop\n      pop\n      jump\t// out\n        /* \"#utility.yul\":7094:7199   */\n    tag_118:\n        /* \"#utility.yul\":7130:7137   */\n      0x00\n        /* \"#utility.yul\":7170:7192   */\n      0xffffffffffffffffffff\n        /* \"#utility.yul\":7163:7168   */\n      dup3\n        /* \"#utility.yul\":7159:7193   */\n      and\n        /* \"#utility.yul\":7148:7193   */\n      swap1\n      pop\n        /* \"#utility.yul\":7094:7199   */\n      swap2\n      swap1\n      pop\n      jump\t// out\n        /* \"#utility.yul\":7205:7325   */\n    tag_119:\n        /* \"#utility.yul\":7277:7300   */\n      tag_196\n        /* \"#utility.yul\":7294:7299   */\n      dup2\n        /* \"#utility.yul\":7277:7300   */\n      tag_118\n      jump\t// in\n    tag_196:\n        /* \"#utility.yul\":7270:7275   */\n      dup2\n        /* \"#utility.yul\":7267:7301   */\n      eq\n        /* \"#utility.yul\":7257:7319   */\n      tag_197\n      jumpi\n        /* \"#utility.yul\":7315:7316   */\n      0x00\n        /* \"#utility.yul\":7312:7313   */\n      dup1\n        /* \"#utility.yul\":7305:7317   */\n      revert\n        /* \"#utility.yul\":7257:7319   */\n    tag_197:\n        /* \"#utility.yul\":7205:7325   */\n      pop\n      jump\t// out\n        /* \"#utility.yul\":7331:7472   */\n    tag_120:\n        /* \"#utility.yul\":7387:7392   */\n      0x00\n        /* \"#utility.yul\":7418:7424   */\n      dup2\n        /* \"#utility.yul\":7412:7425   */\n      mload\n        /* \"#utility.yul\":7403:7425   */\n      swap1\n      pop\n        /* \"#utility.yul\":7434:7466   */\n      tag_199\n        /* \"#utility.yul\":7460:7465   */\n      dup2\n        /* \"#utility.yul\":7434:7466   */\n      tag_119\n      jump\t// in\n    tag_199:\n        /* \"#utility.yul\":7331:7472   */\n      swap3\n      swap2\n      pop\n      pop\n      jump\t// out\n        /* \"#utility.yul\":7478:7554   */\n    tag_121:\n        /* \"#utility.yul\":7514:7521   */\n      0x00\n        /* \"#utility.yul\":7543:7548   */\n      dup2\n        /* \"#utility.yul\":7532:7548   */\n      swap1\n      pop\n        /* \"#utility.yul\":7478:7554   */\n      swap2\n      swap1\n      pop\n      jump\t// out\n        /* \"#utility.yul\":7560:7680   */\n    tag_122:\n        /* \"#utility.yul\":7632:7655   */\n      tag_202\n        /* \"#utility.yul\":7649:7654   */\n      dup2\n        /* \"#utility.yul\":7632:7655   */\n      tag_121\n      jump\t// in\n    tag_202:\n        /* \"#utility.yul\":7625:7630   */\n      dup2\n        /* \"#utility.yul\":7622:7656   */\n      eq\n        /* \"#utility.yul\":7612:7674   */\n      tag_203\n      jumpi\n        /* \"#utility.yul\":7670:7671   */\n      0x00\n        /* \"#utility.yul\":7667:7668   */\n      dup1\n        /* \"#utility.yul\":7660:7672   */\n      revert\n        /* \"#utility.yul\":7612:7674   */\n    tag_203:\n        /* \"#utility.yul\":7560:7680   */\n      pop\n      jump\t// out\n        /* \"#utility.yul\":7686:7827   */\n    tag_123:\n        /* \"#utility.yul\":7742:7747   */\n      0x00\n        /* \"#utility.yul\":7773:7779   */\n      dup2\n        /* \"#utility.yul\":7767:7780   */\n      mload\n        /* \"#utility.yul\":7758:7780   */\n      swap1\n      pop\n        /* \"#utility.yul\":7789:7821   */\n      tag_205\n        /* \"#utility.yul\":7815:7820   */\n      dup2\n        /* \"#utility.yul\":7789:7821   */\n      tag_122\n      jump\t// in\n    tag_205:\n        /* \"#utility.yul\":7686:7827   */\n      swap3\n      swap2\n      pop\n      pop\n      jump\t// out\n        /* \"#utility.yul\":7833:7976   */\n    tag_124:\n        /* \"#utility.yul\":7890:7895   */\n      0x00\n        /* \"#utility.yul\":7921:7927   */\n      dup2\n        /* \"#utility.yul\":7915:7928   */\n      mload\n        /* \"#utility.yul\":7906:7928   */\n      swap1\n      pop\n        /* \"#utility.yul\":7937:7970   */\n      tag_207\n        /* \"#utility.yul\":7964:7969   */\n      dup2\n        /* \"#utility.yul\":7937:7970   */\n      tag_106\n      jump\t// in\n    tag_207:\n        /* \"#utility.yul\":7833:7976   */\n      swap3\n      swap2\n      pop\n      pop\n      jump\t// out\n        /* \"#utility.yul\":7982:8953   */\n    tag_86:\n        /* \"#utility.yul\":8085:8091   */\n      0x00\n        /* \"#utility.yul\":8093:8099   */\n      dup1\n        /* \"#utility.yul\":8101:8107   */\n      0x00\n        /* \"#utility.yul\":8109:8115   */\n      dup1\n        /* \"#utility.yul\":8117:8123   */\n      0x00\n        /* \"#utility.yul\":8166:8169   */\n      0xa0\n        /* \"#utility.yul\":8154:8163   */\n      dup7\n        /* \"#utility.yul\":8145:8152   */\n      dup9\n        /* \"#utility.yul\":8141:8164   */\n      sub\n        /* \"#utility.yul\":8137:8170   */\n      slt\n        /* \"#utility.yul\":8134:8254   */\n      iszero\n      tag_209\n      jumpi\n        /* \"#utility.yul\":8173:8252   */\n      tag_210\n      tag_99\n      jump\t// in\n    tag_210:\n        /* \"#utility.yul\":8134:8254   */\n    tag_209:\n        /* \"#utility.yul\":8293:8294   */\n      0x00\n        /* \"#utility.yul\":8318:8381   */\n      tag_211\n        /* \"#utility.yul\":8373:8380   */\n      dup9\n        /* \"#utility.yul\":8364:8370   */\n      dup3\n        /* \"#utility.yul\":8353:8362   */\n      dup10\n        /* \"#utility.yul\":8349:8371   */\n      add\n        /* \"#utility.yul\":8318:8381   */\n      tag_120\n      jump\t// in\n    tag_211:\n        /* \"#utility.yul\":8308:8381   */\n      swap6\n      pop\n        /* \"#utility.yul\":8264:8391   */\n      pop\n        /* \"#utility.yul\":8430:8432   */\n      0x20\n        /* \"#utility.yul\":8456:8519   */\n      tag_212\n        /* \"#utility.yul\":8511:8518   */\n      dup9\n        /* \"#utility.yul\":8502:8508   */\n      dup3\n        /* \"#utility.yul\":8491:8500   */\n      dup10\n        /* \"#utility.yul\":8487:8509   */\n      add\n        /* \"#utility.yul\":8456:8519   */\n      tag_123\n      jump\t// in\n    tag_212:\n        /* \"#utility.yul\":8446:8519   */\n      swap5\n      pop\n        /* \"#utility.yul\":8401:8529   */\n      pop\n        /* \"#utility.yul\":8568:8570   */\n      0x40\n        /* \"#utility.yul\":8594:8658   */\n      tag_213\n        /* \"#utility.yul\":8650:8657   */\n      dup9\n        /* \"#utility.yul\":8641:8647   */\n      dup3\n        /* \"#utility.yul\":8630:8639   */\n      dup10\n        /* \"#utility.yul\":8626:8648   */\n      add\n        /* \"#utility.yul\":8594:8658   */\n      tag_124\n      jump\t// in\n    tag_213:\n        /* \"#utility.yul\":8584:8658   */\n      swap4\n      pop\n        /* \"#utility.yul\":8539:8668   */\n      pop\n        /* \"#utility.yul\":8707:8709   */\n      0x60\n        /* \"#utility.yul\":8733:8797   */\n      tag_214\n        /* \"#utility.yul\":8789:8796   */\n      dup9\n        /* \"#utility.yul\":8780:8786   */\n      dup3\n        /* \"#utility.yul\":8769:8778   */\n      dup10\n        /* \"#utility.yul\":8765:8787   */\n      add\n        /* \"#utility.yul\":8733:8797   */\n      tag_124\n      jump\t// in\n    tag_214:\n        /* \"#utility.yul\":8723:8797   */\n      swap3\n      pop\n        /* \"#utility.yul\":8678:8807   */\n      pop\n        /* \"#utility.yul\":8846:8849   */\n      0x80\n        /* \"#utility.yul\":8873:8936   */\n      tag_215\n        /* \"#utility.yul\":8928:8935   */\n      dup9\n        /* \"#utility.yul\":8919:8925   */\n      dup3\n        /* \"#utility.yul\":8908:8917   */\n      dup10\n        /* \"#utility.yul\":8904:8926   */\n      add\n        /* \"#utility.yul\":8873:8936   */\n      tag_120\n      jump\t// in\n    tag_215:\n        /* \"#utility.yul\":8863:8936   */\n      swap2\n      pop\n        /* \"#utility.yul\":8817:8946   */\n      pop\n        /* \"#utility.yul\":7982:8953   */\n      swap3\n      swap6\n      pop\n      swap3\n      swap6\n      swap1\n      swap4\n      pop\n      jump\t// out\n        /* \"#utility.yul\":8959:9515   */\n    tag_88:\n        /* \"#utility.yul\":8998:9005   */\n      0x00\n        /* \"#utility.yul\":9021:9040   */\n      tag_217\n        /* \"#utility.yul\":9038:9039   */\n      dup3\n        /* \"#utility.yul\":9021:9040   */\n      tag_121\n      jump\t// in\n    tag_217:\n        /* \"#utility.yul\":9016:9040   */\n      swap2\n      pop\n        /* \"#utility.yul\":9054:9073   */\n      tag_218\n        /* \"#utility.yul\":9071:9072   */\n      dup4\n        /* \"#utility.yul\":9054:9073   */\n      tag_121\n      jump\t// in\n    tag_218:\n        /* \"#utility.yul\":9049:9073   */\n      swap3\n      pop\n        /* \"#utility.yul\":9108:9109   */\n      dup3\n        /* \"#utility.yul\":9105:9106   */\n      dup3\n        /* \"#utility.yul\":9101:9110   */\n      mul\n        /* \"#utility.yul\":9130:9159   */\n      tag_219\n        /* \"#utility.yul\":9147:9158   */\n      dup2\n        /* \"#utility.yul\":9130:9159   */\n      tag_121\n      jump\t// in\n    tag_219:\n        /* \"#utility.yul\":9119:9159   */\n      swap2\n      pop\n        /* \"#utility.yul\":9217:9283   */\n      0x8000000000000000000000000000000000000000000000000000000000000000\n        /* \"#utility.yul\":9214:9215   */\n      dup5\n        /* \"#utility.yul\":9211:9284   */\n      eq\n        /* \"#utility.yul\":9207:9208   */\n      0x00\n        /* \"#utility.yul\":9204:9205   */\n      dup5\n        /* \"#utility.yul\":9200:9209   */\n      slt\n        /* \"#utility.yul\":9196:9285   */\n      and\n        /* \"#utility.yul\":9193:9308   */\n      iszero\n      tag_220\n      jumpi\n        /* \"#utility.yul\":9288:9306   */\n      tag_221\n      tag_116\n      jump\t// in\n    tag_221:\n        /* \"#utility.yul\":9193:9308   */\n    tag_220:\n        /* \"#utility.yul\":9458:9459   */\n      dup3\n        /* \"#utility.yul\":9449:9456   */\n      dup3\n        /* \"#utility.yul\":9444:9460   */\n      sdiv\n        /* \"#utility.yul\":9441:9442   */\n      dup5\n        /* \"#utility.yul\":9438:9461   */\n      eq\n        /* \"#utility.yul\":9418:9419   */\n      dup4\n        /* \"#utility.yul\":9411:9420   */\n      iszero\n        /* \"#utility.yul\":9391:9475   */\n      or\n        /* \"#utility.yul\":9368:9508   */\n      tag_222\n      jumpi\n        /* \"#utility.yul\":9488:9506   */\n      tag_223\n      tag_116\n      jump\t// in\n    tag_223:\n        /* \"#utility.yul\":9368:9508   */\n    tag_222:\n        /* \"#utility.yul\":9006:9515   */\n      pop\n        /* \"#utility.yul\":8959:9515   */\n      swap3\n      swap2\n      pop\n      pop\n      jump\t// out\n\n    auxdata: 0xa2646970667358221220bc17151953d900e220f293fe902b9aaffa8a089494d2e834845860ca0f9ec11164736f6c634300081a0033\n}\n",
				"bytecode": {
					"linkReferences": {},
					"object": "60a0604052348015600e575f80fd5b503373ffffffffffffffffffffffffffffffffffffffff1660808173ffffffffffffffffffffffffffffffffffffffff1681525050608051610ba46100625f395f818161026301526104a30152610ba45ff3fe608060405260043610610058575f3560e01c8063213dbea2146100715780633ccfd60b1461009b5780633e47d6f3146100b1578063b60d4288146100ed578063dba6335f146100f7578063dc0d3dff1461012157610067565b366100675761006561015d565b005b61006f61015d565b005b34801561007c575f80fd5b50610085610254565b6040516100929190610696565b60405180910390f35b3480156100a6575f80fd5b506100af610261565b005b3480156100bc575f80fd5b506100d760048036038101906100d2919061070d565b61048c565b6040516100e49190610696565b60405180910390f35b6100f561015d565b005b348015610102575f80fd5b5061010b6104a1565b6040516101189190610747565b60405180910390f35b34801561012c575f80fd5b506101476004803603810190610142919061078a565b6104c5565b6040516101549190610747565b60405180910390f35b6802b5e3af16b1880000610170346104ff565b10156101b1576040517f08c379a00000000000000000000000000000000000000000000000000000000081526004016101a89061080f565b60405180910390fd5b5f33908060018154018082558091505060019003905f5260205f20015f9091909190916101000a81548173ffffffffffffffffffffffffffffffffffffffff021916908373ffffffffffffffffffffffffffffffffffffffff1602179055503460015f3373ffffffffffffffffffffffffffffffffffffffff1673ffffffffffffffffffffffffffffffffffffffff1681526020019081526020015f2081905550565b6802b5e3af16b188000081565b7f000000000000000000000000000000000000000000000000000000000000000073ffffffffffffffffffffffffffffffffffffffff163373ffffffffffffffffffffffffffffffffffffffff16146102e6576040517f30cd747100000000000000000000000000000000000000000000000000000000815260040160405180910390fd5b5f5b5f80549050811015610382575f8082815481106103085761030761082d565b5b905f5260205f20015f9054906101000a900473ffffffffffffffffffffffffffffffffffffffff1690505f60015f8373ffffffffffffffffffffffffffffffffffffffff1673ffffffffffffffffffffffffffffffffffffffff1681526020019081526020015f20819055505080806001019150506102e8565b505f67ffffffffffffffff81111561039d5761039c61085a565b5b6040519080825280602002602001820160405280156103cb5781602001602082028036833780820191505090505b505f90805190602001906103e09291906105dc565b505f3373ffffffffffffffffffffffffffffffffffffffff1647604051610406906108b4565b5f6040518083038185875af1925050503d805f8114610440576040519150601f19603f3d011682016040523d82523d5f602084013e610445565b606091505b5050905080610489576040517f08c379a000000000000000000000000000000000000000000000000000000000815260040161048090610912565b60405180910390fd5b50565b6001602052805f5260405f205f915090505481565b7f000000000000000000000000000000000000000000000000000000000000000081565b5f81815481106104d3575f80fd5b905f5260205f20015f915054906101000a900473ffffffffffffffffffffffffffffffffffffffff1681565b5f80610509610537565b90505f670de0b6b3a76400008483610521919061095d565b61052b91906109cb565b90508092505050919050565b5f8073694aa1769357215de4fac081bf1f309adc32530690505f8173ffffffffffffffffffffffffffffffffffffffff1663feaf968c6040518163ffffffff1660e01b815260040160a060405180830381865afa15801561059a573d5f803e3d5ffd5b505050506040513d601f19601f820116820180604052508101906105be9190610a81565b5050509150506402540be400816105d59190610af8565b9250505090565b828054828255905f5260205f20908101928215610652579160200282015b82811115610651578251825f6101000a81548173ffffffffffffffffffffffffffffffffffffffff021916908373ffffffffffffffffffffffffffffffffffffffff160217905550916020019190600101906105fa565b5b50905061065f9190610663565b5090565b5b8082111561067a575f815f905550600101610664565b5090565b5f819050919050565b6106908161067e565b82525050565b5f6020820190506106a95f830184610687565b92915050565b5f80fd5b5f73ffffffffffffffffffffffffffffffffffffffff82169050919050565b5f6106dc826106b3565b9050919050565b6106ec816106d2565b81146106f6575f80fd5b50565b5f81359050610707816106e3565b92915050565b5f60208284031215610722576107216106af565b5b5f61072f848285016106f9565b91505092915050565b610741816106d2565b82525050565b5f60208201905061075a5f830184610738565b92915050565b6107698161067e565b8114610773575f80fd5b50565b5f8135905061078481610760565b92915050565b5f6020828403121561079f5761079e6106af565b5b5f6107ac84828501610776565b91505092915050565b5f82825260208201905092915050565b7f4469646e27742073656e6420656e6f75676800000000000000000000000000005f82015250565b5f6107f96012836107b5565b9150610804826107c5565b602082019050919050565b5f6020820190508181035f830152610826816107ed565b9050919050565b7f4e487b71000000000000000000000000000000000000000000000000000000005f52603260045260245ffd5b7f4e487b71000000000000000000000000000000000000000000000000000000005f52604160045260245ffd5b5f81905092915050565b50565b5f61089f5f83610887565b91506108aa82610891565b5f82019050919050565b5f6108be82610894565b9150819050919050565b7f43616c6c206661696c65640000000000000000000000000000000000000000005f82015250565b5f6108fc600b836107b5565b9150610907826108c8565b602082019050919050565b5f6020820190508181035f830152610929816108f0565b9050919050565b7f4e487b71000000000000000000000000000000000000000000000000000000005f52601160045260245ffd5b5f6109678261067e565b91506109728361067e565b92508282026109808161067e565b9150828204841483151761099757610996610930565b5b5092915050565b7f4e487b71000000000000000000000000000000000000000000000000000000005f52601260045260245ffd5b5f6109d58261067e565b91506109e08361067e565b9250826109f0576109ef61099e565b5b828204905092915050565b5f69ffffffffffffffffffff82169050919050565b610a19816109fb565b8114610a23575f80fd5b50565b5f81519050610a3481610a10565b92915050565b5f819050919050565b610a4c81610a3a565b8114610a56575f80fd5b50565b5f81519050610a6781610a43565b92915050565b5f81519050610a7b81610760565b92915050565b5f805f805f60a08688031215610a9a57610a996106af565b5b5f610aa788828901610a26565b9550506020610ab888828901610a59565b9450506040610ac988828901610a6d565b9350506060610ada88828901610a6d565b9250506080610aeb88828901610a26565b9150509295509295909350565b5f610b0282610a3a565b9150610b0d83610a3a565b9250828202610b1b81610a3a565b91507f800000000000000000000000000000000000000000000000000000000000000084145f84121615610b5257610b51610930565b5b8282058414831517610b6757610b66610930565b5b509291505056fea2646970667358221220bc17151953d900e220f293fe902b9aaffa8a089494d2e834845860ca0f9ec11164736f6c634300081a0033",
					"opcodes": "PUSH1 0xA0 PUSH1 0x40 MSTORE CALLVALUE DUP1 ISZERO PUSH1 0xE JUMPI PUSH0 DUP1 REVERT JUMPDEST POP CALLER PUSH20 0xFFFFFFFFFFFFFFFFFFFFFFFFFFFFFFFFFFFFFFFF AND PUSH1 0x80 DUP2 PUSH20 0xFFFFFFFFFFFFFFFFFFFFFFFFFFFFFFFFFFFFFFFF AND DUP2 MSTORE POP POP PUSH1 0x80 MLOAD PUSH2 0xBA4 PUSH2 0x62 PUSH0 CODECOPY PUSH0 DUP2 DUP2 PUSH2 0x263 ADD MSTORE PUSH2 0x4A3 ADD MSTORE PUSH2 0xBA4 PUSH0 RETURN INVALID PUSH1 0x80 PUSH1 0x40 MSTORE PUSH1 0x4 CALLDATASIZE LT PUSH2 0x58 JUMPI PUSH0 CALLDATALOAD PUSH1 0xE0 SHR DUP1 PUSH4 0x213DBEA2 EQ PUSH2 0x71 JUMPI DUP1 PUSH4 0x3CCFD60B EQ PUSH2 0x9B JUMPI DUP1 PUSH4 0x3E47D6F3 EQ PUSH2 0xB1 JUMPI DUP1 PUSH4 0xB60D4288 EQ PUSH2 0xED JUMPI DUP1 PUSH4 0xDBA6335F EQ PUSH2 0xF7 JUMPI DUP1 PUSH4 0xDC0D3DFF EQ PUSH2 0x121 JUMPI PUSH2 0x67 JUMP JUMPDEST CALLDATASIZE PUSH2 0x67 JUMPI PUSH2 0x65 PUSH2 0x15D JUMP JUMPDEST STOP JUMPDEST PUSH2 0x6F PUSH2 0x15D JUMP JUMPDEST STOP JUMPDEST CALLVALUE DUP1 ISZERO PUSH2 0x7C JUMPI PUSH0 DUP1 REVERT JUMPDEST POP PUSH2 0x85 PUSH2 0x254 JUMP JUMPDEST PUSH1 0x40 MLOAD PUSH2 0x92 SWAP2 SWAP1 PUSH2 0x696 JUMP JUMPDEST PUSH1 0x40 MLOAD DUP1 SWAP2 SUB SWAP1 RETURN JUMPDEST CALLVALUE DUP1 ISZERO PUSH2 0xA6 JUMPI PUSH0 DUP1 REVERT JUMPDEST POP PUSH2 0xAF PUSH2 0x261 JUMP JUMPDEST STOP JUMPDEST CALLVALUE DUP1 ISZERO PUSH2 0xBC JUMPI PUSH0 DUP1 REVERT JUMPDEST POP PUSH2 0xD7 PUSH1 0x4 DUP1 CALLDATASIZE SUB DUP2 ADD SWAP1 PUSH2 0xD2 SWAP2 SWAP1 PUSH2 0x70D JUMP JUMPDEST PUSH2 0x48C JUMP JUMPDEST PUSH1 0x40 MLOAD PUSH2 0xE4 SWAP2 SWAP1 PUSH2 0x696 JUMP JUMPDEST PUSH1 0x40 MLOAD DUP1 SWAP2 SUB SWAP1 RETURN JUMPDEST PUSH2 0xF5 PUSH2 0x15D JUMP JUMPDEST STOP JUMPDEST CALLVALUE DUP1 ISZERO PUSH2 0x102 JUMPI PUSH0 DUP1 REVERT JUMPDEST POP PUSH2 0x10B PUSH2 0x4A1 JUMP JUMPDEST PUSH1 0x40 MLOAD PUSH2 0x118 SWAP2 SWAP1 PUSH2 0x747 JUMP JUMPDEST PUSH1 0x40 MLOAD DUP1 SWAP2 SUB SWAP1 RETURN JUMPDEST CALLVALUE DUP1 ISZERO PUSH2 0x12C JUMPI PUSH0 DUP1 REVERT JUMPDEST POP PUSH2 0x147 PUSH1 0x4 DUP1 CALLDATASIZE SUB DUP2 ADD SWAP1 PUSH2 0x142 SWAP2 SWAP1 PUSH2 0x78A JUMP JUMPDEST PUSH2 0x4C5 JUMP JUMPDEST PUSH1 0x40 MLOAD PUSH2 0x154 SWAP2 SWAP1 PUSH2 0x747 JUMP JUMPDEST PUSH1 0x40 MLOAD DUP1 SWAP2 SUB SWAP1 RETURN JUMPDEST PUSH9 0x2B5E3AF16B1880000 PUSH2 0x170 CALLVALUE PUSH2 0x4FF JUMP JUMPDEST LT ISZERO PUSH2 0x1B1 JUMPI PUSH1 0x40 MLOAD PUSH32 0x8C379A000000000000000000000000000000000000000000000000000000000 DUP2 MSTORE PUSH1 0x4 ADD PUSH2 0x1A8 SWAP1 PUSH2 0x80F JUMP JUMPDEST PUSH1 0x40 MLOAD DUP1 SWAP2 SUB SWAP1 REVERT JUMPDEST PUSH0 CALLER SWAP1 DUP1 PUSH1 0x1 DUP2 SLOAD ADD DUP1 DUP3 SSTORE DUP1 SWAP2 POP POP PUSH1 0x1 SWAP1 SUB SWAP1 PUSH0 MSTORE PUSH1 0x20 PUSH0 KECCAK256 ADD PUSH0 SWAP1 SWAP2 SWAP1 SWAP2 SWAP1 SWAP2 PUSH2 0x100 EXP DUP2 SLOAD DUP2 PUSH20 0xFFFFFFFFFFFFFFFFFFFFFFFFFFFFFFFFFFFFFFFF MUL NOT AND SWAP1 DUP4 PUSH20 0xFFFFFFFFFFFFFFFFFFFFFFFFFFFFFFFFFFFFFFFF AND MUL OR SWAP1 SSTORE POP CALLVALUE PUSH1 0x1 PUSH0 CALLER PUSH20 0xFFFFFFFFFFFFFFFFFFFFFFFFFFFFFFFFFFFFFFFF AND PUSH20 0xFFFFFFFFFFFFFFFFFFFFFFFFFFFFFFFFFFFFFFFF AND DUP2 MSTORE PUSH1 0x20 ADD SWAP1 DUP2 MSTORE PUSH1 0x20 ADD PUSH0 KECCAK256 DUP2 SWAP1 SSTORE POP JUMP JUMPDEST PUSH9 0x2B5E3AF16B1880000 DUP2 JUMP JUMPDEST PUSH32 0x0 PUSH20 0xFFFFFFFFFFFFFFFFFFFFFFFFFFFFFFFFFFFFFFFF AND CALLER PUSH20 0xFFFFFFFFFFFFFFFFFFFFFFFFFFFFFFFFFFFFFFFF AND EQ PUSH2 0x2E6 JUMPI PUSH1 0x40 MLOAD PUSH32 0x30CD747100000000000000000000000000000000000000000000000000000000 DUP2 MSTORE PUSH1 0x4 ADD PUSH1 0x40 MLOAD DUP1 SWAP2 SUB SWAP1 REVERT JUMPDEST PUSH0 JUMPDEST PUSH0 DUP1 SLOAD SWAP1 POP DUP2 LT ISZERO PUSH2 0x382 JUMPI PUSH0 DUP1 DUP3 DUP2 SLOAD DUP2 LT PUSH2 0x308 JUMPI PUSH2 0x307 PUSH2 0x82D JUMP JUMPDEST JUMPDEST SWAP1 PUSH0 MSTORE PUSH1 0x20 PUSH0 KECCAK256 ADD PUSH0 SWAP1 SLOAD SWAP1 PUSH2 0x100 EXP SWAP1 DIV PUSH20 0xFFFFFFFFFFFFFFFFFFFFFFFFFFFFFFFFFFFFFFFF AND SWAP1 POP PUSH0 PUSH1 0x1 PUSH0 DUP4 PUSH20 0xFFFFFFFFFFFFFFFFFFFFFFFFFFFFFFFFFFFFFFFF AND PUSH20 0xFFFFFFFFFFFFFFFFFFFFFFFFFFFFFFFFFFFFFFFF AND DUP2 MSTORE PUSH1 0x20 ADD SWAP1 DUP2 MSTORE PUSH1 0x20 ADD PUSH0 KECCAK256 DUP2 SWAP1 SSTORE POP POP DUP1 DUP1 PUSH1 0x1 ADD SWAP2 POP POP PUSH2 0x2E8 JUMP JUMPDEST POP PUSH0 PUSH8 0xFFFFFFFFFFFFFFFF DUP2 GT ISZERO PUSH2 0x39D JUMPI PUSH2 0x39C PUSH2 0x85A JUMP JUMPDEST JUMPDEST PUSH1 0x40 MLOAD SWAP1 DUP1 DUP3 MSTORE DUP1 PUSH1 0x20 MUL PUSH1 0x20 ADD DUP3 ADD PUSH1 0x40 MSTORE DUP1 ISZERO PUSH2 0x3CB JUMPI DUP2 PUSH1 0x20 ADD PUSH1 0x20 DUP3 MUL DUP1 CALLDATASIZE DUP4 CALLDATACOPY DUP1 DUP3 ADD SWAP2 POP POP SWAP1 POP JUMPDEST POP PUSH0 SWAP1 DUP1 MLOAD SWAP1 PUSH1 0x20 ADD SWAP1 PUSH2 0x3E0 SWAP3 SWAP2 SWAP1 PUSH2 0x5DC JUMP JUMPDEST POP PUSH0 CALLER PUSH20 0xFFFFFFFFFFFFFFFFFFFFFFFFFFFFFFFFFFFFFFFF AND SELFBALANCE PUSH1 0x40 MLOAD PUSH2 0x406 SWAP1 PUSH2 0x8B4 JUMP JUMPDEST PUSH0 PUSH1 0x40 MLOAD DUP1 DUP4 SUB DUP2 DUP6 DUP8 GAS CALL SWAP3 POP POP POP RETURNDATASIZE DUP1 PUSH0 DUP2 EQ PUSH2 0x440 JUMPI PUSH1 0x40 MLOAD SWAP2 POP PUSH1 0x1F NOT PUSH1 0x3F RETURNDATASIZE ADD AND DUP3 ADD PUSH1 0x40 MSTORE RETURNDATASIZE DUP3 MSTORE RETURNDATASIZE PUSH0 PUSH1 0x20 DUP5 ADD RETURNDATACOPY PUSH2 0x445 JUMP JUMPDEST PUSH1 0x60 SWAP2 POP JUMPDEST POP POP SWAP1 POP DUP1 PUSH2 0x489 JUMPI PUSH1 0x40 MLOAD PUSH32 0x8C379A000000000000000000000000000000000000000000000000000000000 DUP2 MSTORE PUSH1 0x4 ADD PUSH2 0x480 SWAP1 PUSH2 0x912 JUMP JUMPDEST PUSH1 0x40 MLOAD DUP1 SWAP2 SUB SWAP1 REVERT JUMPDEST POP JUMP JUMPDEST PUSH1 0x1 PUSH1 0x20 MSTORE DUP1 PUSH0 MSTORE PUSH1 0x40 PUSH0 KECCAK256 PUSH0 SWAP2 POP SWAP1 POP SLOAD DUP2 JUMP JUMPDEST PUSH32 0x0 DUP2 JUMP JUMPDEST PUSH0 DUP2 DUP2 SLOAD DUP2 LT PUSH2 0x4D3 JUMPI PUSH0 DUP1 REVERT JUMPDEST SWAP1 PUSH0 MSTORE PUSH1 0x20 PUSH0 KECCAK256 ADD PUSH0 SWAP2 POP SLOAD SWAP1 PUSH2 0x100 EXP SWAP1 DIV PUSH20 0xFFFFFFFFFFFFFFFFFFFFFFFFFFFFFFFFFFFFFFFF AND DUP2 JUMP JUMPDEST PUSH0 DUP1 PUSH2 0x509 PUSH2 0x537 JUMP JUMPDEST SWAP1 POP PUSH0 PUSH8 0xDE0B6B3A7640000 DUP5 DUP4 PUSH2 0x521 SWAP2 SWAP1 PUSH2 0x95D JUMP JUMPDEST PUSH2 0x52B SWAP2 SWAP1 PUSH2 0x9CB JUMP JUMPDEST SWAP1 POP DUP1 SWAP3 POP POP POP SWAP2 SWAP1 POP JUMP JUMPDEST PUSH0 DUP1 PUSH20 0x694AA1769357215DE4FAC081BF1F309ADC325306 SWAP1 POP PUSH0 DUP2 PUSH20 0xFFFFFFFFFFFFFFFFFFFFFFFFFFFFFFFFFFFFFFFF AND PUSH4 0xFEAF968C PUSH1 0x40 MLOAD DUP2 PUSH4 0xFFFFFFFF AND PUSH1 0xE0 SHL DUP2 MSTORE PUSH1 0x4 ADD PUSH1 0xA0 PUSH1 0x40 MLOAD DUP1 DUP4 SUB DUP2 DUP7 GAS STATICCALL ISZERO DUP1 ISZERO PUSH2 0x59A JUMPI RETURNDATASIZE PUSH0 DUP1 RETURNDATACOPY RETURNDATASIZE PUSH0 REVERT JUMPDEST POP POP POP POP PUSH1 0x40 MLOAD RETURNDATASIZE PUSH1 0x1F NOT PUSH1 0x1F DUP3 ADD AND DUP3 ADD DUP1 PUSH1 0x40 MSTORE POP DUP2 ADD SWAP1 PUSH2 0x5BE SWAP2 SWAP1 PUSH2 0xA81 JUMP JUMPDEST POP POP POP SWAP2 POP POP PUSH5 0x2540BE400 DUP2 PUSH2 0x5D5 SWAP2 SWAP1 PUSH2 0xAF8 JUMP JUMPDEST SWAP3 POP POP POP SWAP1 JUMP JUMPDEST DUP3 DUP1 SLOAD DUP3 DUP3 SSTORE SWAP1 PUSH0 MSTORE PUSH1 0x20 PUSH0 KECCAK256 SWAP1 DUP2 ADD SWAP3 DUP3 ISZERO PUSH2 0x652 JUMPI SWAP2 PUSH1 0x20 MUL DUP3 ADD JUMPDEST DUP3 DUP2 GT ISZERO PUSH2 0x651 JUMPI DUP3 MLOAD DUP3 PUSH0 PUSH2 0x100 EXP DUP2 SLOAD DUP2 PUSH20 0xFFFFFFFFFFFFFFFFFFFFFFFFFFFFFFFFFFFFFFFF MUL NOT AND SWAP1 DUP4 PUSH20 0xFFFFFFFFFFFFFFFFFFFFFFFFFFFFFFFFFFFFFFFF AND MUL OR SWAP1 SSTORE POP SWAP2 PUSH1 0x20 ADD SWAP2 SWAP1 PUSH1 0x1 ADD SWAP1 PUSH2 0x5FA JUMP JUMPDEST JUMPDEST POP SWAP1 POP PUSH2 0x65F SWAP2 SWAP1 PUSH2 0x663 JUMP JUMPDEST POP SWAP1 JUMP JUMPDEST JUMPDEST DUP1 DUP3 GT ISZERO PUSH2 0x67A JUMPI PUSH0 DUP2 PUSH0 SWAP1 SSTORE POP PUSH1 0x1 ADD PUSH2 0x664 JUMP JUMPDEST POP SWAP1 JUMP JUMPDEST PUSH0 DUP2 SWAP1 POP SWAP2 SWAP1 POP JUMP JUMPDEST PUSH2 0x690 DUP2 PUSH2 0x67E JUMP JUMPDEST DUP3 MSTORE POP POP JUMP JUMPDEST PUSH0 PUSH1 0x20 DUP3 ADD SWAP1 POP PUSH2 0x6A9 PUSH0 DUP4 ADD DUP5 PUSH2 0x687 JUMP JUMPDEST SWAP3 SWAP2 POP POP JUMP JUMPDEST PUSH0 DUP1 REVERT JUMPDEST PUSH0 PUSH20 0xFFFFFFFFFFFFFFFFFFFFFFFFFFFFFFFFFFFFFFFF DUP3 AND SWAP1 POP SWAP2 SWAP1 POP JUMP JUMPDEST PUSH0 PUSH2 0x6DC DUP3 PUSH2 0x6B3 JUMP JUMPDEST SWAP1 POP SWAP2 SWAP1 POP JUMP JUMPDEST PUSH2 0x6EC DUP2 PUSH2 0x6D2 JUMP JUMPDEST DUP2 EQ PUSH2 0x6F6 JUMPI PUSH0 DUP1 REVERT JUMPDEST POP JUMP JUMPDEST PUSH0 DUP2 CALLDATALOAD SWAP1 POP PUSH2 0x707 DUP2 PUSH2 0x6E3 JUMP JUMPDEST SWAP3 SWAP2 POP POP JUMP JUMPDEST PUSH0 PUSH1 0x20 DUP3 DUP5 SUB SLT ISZERO PUSH2 0x722 JUMPI PUSH2 0x721 PUSH2 0x6AF JUMP JUMPDEST JUMPDEST PUSH0 PUSH2 0x72F DUP5 DUP3 DUP6 ADD PUSH2 0x6F9 JUMP JUMPDEST SWAP2 POP POP SWAP3 SWAP2 POP POP JUMP JUMPDEST PUSH2 0x741 DUP2 PUSH2 0x6D2 JUMP JUMPDEST DUP3 MSTORE POP POP JUMP JUMPDEST PUSH0 PUSH1 0x20 DUP3 ADD SWAP1 POP PUSH2 0x75A PUSH0 DUP4 ADD DUP5 PUSH2 0x738 JUMP JUMPDEST SWAP3 SWAP2 POP POP JUMP JUMPDEST PUSH2 0x769 DUP2 PUSH2 0x67E JUMP JUMPDEST DUP2 EQ PUSH2 0x773 JUMPI PUSH0 DUP1 REVERT JUMPDEST POP JUMP JUMPDEST PUSH0 DUP2 CALLDATALOAD SWAP1 POP PUSH2 0x784 DUP2 PUSH2 0x760 JUMP JUMPDEST SWAP3 SWAP2 POP POP JUMP JUMPDEST PUSH0 PUSH1 0x20 DUP3 DUP5 SUB SLT ISZERO PUSH2 0x79F JUMPI PUSH2 0x79E PUSH2 0x6AF JUMP JUMPDEST JUMPDEST PUSH0 PUSH2 0x7AC DUP5 DUP3 DUP6 ADD PUSH2 0x776 JUMP JUMPDEST SWAP2 POP POP SWAP3 SWAP2 POP POP JUMP JUMPDEST PUSH0 DUP3 DUP3 MSTORE PUSH1 0x20 DUP3 ADD SWAP1 POP SWAP3 SWAP2 POP POP JUMP JUMPDEST PUSH32 0x4469646E27742073656E6420656E6F7567680000000000000000000000000000 PUSH0 DUP3 ADD MSTORE POP JUMP JUMPDEST PUSH0 PUSH2 0x7F9 PUSH1 0x12 DUP4 PUSH2 0x7B5 JUMP JUMPDEST SWAP2 POP PUSH2 0x804 DUP3 PUSH2 0x7C5 JUMP JUMPDEST PUSH1 0x20 DUP3 ADD SWAP1 POP SWAP2 SWAP1 POP JUMP JUMPDEST PUSH0 PUSH1 0x20 DUP3 ADD SWAP1 POP DUP2 DUP2 SUB PUSH0 DUP4 ADD MSTORE PUSH2 0x826 DUP2 PUSH2 0x7ED JUMP JUMPDEST SWAP1 POP SWAP2 SWAP1 POP JUMP JUMPDEST PUSH32 0x4E487B7100000000000000000000000000000000000000000000000000000000 PUSH0 MSTORE PUSH1 0x32 PUSH1 0x4 MSTORE PUSH1 0x24 PUSH0 REVERT JUMPDEST PUSH32 0x4E487B7100000000000000000000000000000000000000000000000000000000 PUSH0 MSTORE PUSH1 0x41 PUSH1 0x4 MSTORE PUSH1 0x24 PUSH0 REVERT JUMPDEST PUSH0 DUP2 SWAP1 POP SWAP3 SWAP2 POP POP JUMP JUMPDEST POP JUMP JUMPDEST PUSH0 PUSH2 0x89F PUSH0 DUP4 PUSH2 0x887 JUMP JUMPDEST SWAP2 POP PUSH2 0x8AA DUP3 PUSH2 0x891 JUMP JUMPDEST PUSH0 DUP3 ADD SWAP1 POP SWAP2 SWAP1 POP JUMP JUMPDEST PUSH0 PUSH2 0x8BE DUP3 PUSH2 0x894 JUMP JUMPDEST SWAP2 POP DUP2 SWAP1 POP SWAP2 SWAP1 POP JUMP JUMPDEST PUSH32 0x43616C6C206661696C6564000000000000000000000000000000000000000000 PUSH0 DUP3 ADD MSTORE POP JUMP JUMPDEST PUSH0 PUSH2 0x8FC PUSH1 0xB DUP4 PUSH2 0x7B5 JUMP JUMPDEST SWAP2 POP PUSH2 0x907 DUP3 PUSH2 0x8C8 JUMP JUMPDEST PUSH1 0x20 DUP3 ADD SWAP1 POP SWAP2 SWAP1 POP JUMP JUMPDEST PUSH0 PUSH1 0x20 DUP3 ADD SWAP1 POP DUP2 DUP2 SUB PUSH0 DUP4 ADD MSTORE PUSH2 0x929 DUP2 PUSH2 0x8F0 JUMP JUMPDEST SWAP1 POP SWAP2 SWAP1 POP JUMP JUMPDEST PUSH32 0x4E487B7100000000000000000000000000000000000000000000000000000000 PUSH0 MSTORE PUSH1 0x11 PUSH1 0x4 MSTORE PUSH1 0x24 PUSH0 REVERT JUMPDEST PUSH0 PUSH2 0x967 DUP3 PUSH2 0x67E JUMP JUMPDEST SWAP2 POP PUSH2 0x972 DUP4 PUSH2 0x67E JUMP JUMPDEST SWAP3 POP DUP3 DUP3 MUL PUSH2 0x980 DUP2 PUSH2 0x67E JUMP JUMPDEST SWAP2 POP DUP3 DUP3 DIV DUP5 EQ DUP4 ISZERO OR PUSH2 0x997 JUMPI PUSH2 0x996 PUSH2 0x930 JUMP JUMPDEST JUMPDEST POP SWAP3 SWAP2 POP POP JUMP JUMPDEST PUSH32 0x4E487B7100000000000000000000000000000000000000000000000000000000 PUSH0 MSTORE PUSH1 0x12 PUSH1 0x4 MSTORE PUSH1 0x24 PUSH0 REVERT JUMPDEST PUSH0 PUSH2 0x9D5 DUP3 PUSH2 0x67E JUMP JUMPDEST SWAP2 POP PUSH2 0x9E0 DUP4 PUSH2 0x67E JUMP JUMPDEST SWAP3 POP DUP3 PUSH2 0x9F0 JUMPI PUSH2 0x9EF PUSH2 0x99E JUMP JUMPDEST JUMPDEST DUP3 DUP3 DIV SWAP1 POP SWAP3 SWAP2 POP POP JUMP JUMPDEST PUSH0 PUSH10 0xFFFFFFFFFFFFFFFFFFFF DUP3 AND SWAP1 POP SWAP2 SWAP1 POP JUMP JUMPDEST PUSH2 0xA19 DUP2 PUSH2 0x9FB JUMP JUMPDEST DUP2 EQ PUSH2 0xA23 JUMPI PUSH0 DUP1 REVERT JUMPDEST POP JUMP JUMPDEST PUSH0 DUP2 MLOAD SWAP1 POP PUSH2 0xA34 DUP2 PUSH2 0xA10 JUMP JUMPDEST SWAP3 SWAP2 POP POP JUMP JUMPDEST PUSH0 DUP2 SWAP1 POP SWAP2 SWAP1 POP JUMP JUMPDEST PUSH2 0xA4C DUP2 PUSH2 0xA3A JUMP JUMPDEST DUP2 EQ PUSH2 0xA56 JUMPI PUSH0 DUP1 REVERT JUMPDEST POP JUMP JUMPDEST PUSH0 DUP2 MLOAD SWAP1 POP PUSH2 0xA67 DUP2 PUSH2 0xA43 JUMP JUMPDEST SWAP3 SWAP2 POP POP JUMP JUMPDEST PUSH0 DUP2 MLOAD SWAP1 POP PUSH2 0xA7B DUP2 PUSH2 0x760 JUMP JUMPDEST SWAP3 SWAP2 POP POP JUMP JUMPDEST PUSH0 DUP1 PUSH0 DUP1 PUSH0 PUSH1 0xA0 DUP7 DUP9 SUB SLT ISZERO PUSH2 0xA9A JUMPI PUSH2 0xA99 PUSH2 0x6AF JUMP JUMPDEST JUMPDEST PUSH0 PUSH2 0xAA7 DUP9 DUP3 DUP10 ADD PUSH2 0xA26 JUMP JUMPDEST SWAP6 POP POP PUSH1 0x20 PUSH2 0xAB8 DUP9 DUP3 DUP10 ADD PUSH2 0xA59 JUMP JUMPDEST SWAP5 POP POP PUSH1 0x40 PUSH2 0xAC9 DUP9 DUP3 DUP10 ADD PUSH2 0xA6D JUMP JUMPDEST SWAP4 POP POP PUSH1 0x60 PUSH2 0xADA DUP9 DUP3 DUP10 ADD PUSH2 0xA6D JUMP JUMPDEST SWAP3 POP POP PUSH1 0x80 PUSH2 0xAEB DUP9 DUP3 DUP10 ADD PUSH2 0xA26 JUMP JUMPDEST SWAP2 POP POP SWAP3 SWAP6 POP SWAP3 SWAP6 SWAP1 SWAP4 POP JUMP JUMPDEST PUSH0 PUSH2 0xB02 DUP3 PUSH2 0xA3A JUMP JUMPDEST SWAP2 POP PUSH2 0xB0D DUP4 PUSH2 0xA3A JUMP JUMPDEST SWAP3 POP DUP3 DUP3 MUL PUSH2 0xB1B DUP2 PUSH2 0xA3A JUMP JUMPDEST SWAP2 POP PUSH32 0x8000000000000000000000000000000000000000000000000000000000000000 DUP5 EQ PUSH0 DUP5 SLT AND ISZERO PUSH2 0xB52 JUMPI PUSH2 0xB51 PUSH2 0x930 JUMP JUMPDEST JUMPDEST DUP3 DUP3 SDIV DUP5 EQ DUP4 ISZERO OR PUSH2 0xB67 JUMPI PUSH2 0xB66 PUSH2 0x930 JUMP JUMPDEST JUMPDEST POP SWAP3 SWAP2 POP POP JUMP INVALID LOG2 PUSH5 0x6970667358 0x22 SLT KECCAK256 0xBC OR ISZERO NOT MSTORE8 0xD9 STOP 0xE2 KECCAK256 CALLCODE SWAP4 INVALID SWAP1 0x2B SWAP11 0xAF STATICCALL DUP11 ADDMOD SWAP5 SWAP5 0xD2 0xE8 CALLVALUE DUP5 PC PUSH1 0xCA 0xF SWAP15 0xC1 GT PUSH5 0x736F6C6343 STOP ADDMOD BYTE STOP CALLER "
				},
				"gasEstimates": {
					"creation": {
						"codeDepositCost": "596000",
						"executionCost": "infinite",
						"totalCost": "infinite"
					},
					"external": {
						"": "infinite",
						"MIN_USD()": "303",
						"addressToAmountFunded(address)": "2824",
						"fund()": "infinite",
						"funders(uint256)": "5031",
						"i_owner()": "infinite",
						"withdraw()": "infinite"
					}
				},
				"methodIdentifiers": {
					"MIN_USD()": "213dbea2",
					"addressToAmountFunded(address)": "3e47d6f3",
					"fund()": "b60d4288",
					"funders(uint256)": "dc0d3dff",
					"i_owner()": "dba6335f",
					"withdraw()": "3ccfd60b"
				}
			},
			"storageLayout": {
				"storage": [
					{
						"astId": 61,
						"contract": "FundMe.sol:FundMe",
						"label": "funders",
						"offset": 0,
						"slot": "0",
						"type": "t_array(t_address)dyn_storage"
					},
					{
						"astId": 65,
						"contract": "FundMe.sol:FundMe",
						"label": "addressToAmountFunded",
						"offset": 0,
						"slot": "1",
						"type": "t_mapping(t_address,t_uint256)"
					}
				],
				"types": {
					"t_address": {
						"encoding": "inplace",
						"label": "address",
						"numberOfBytes": "20"
					},
					"t_array(t_address)dyn_storage": {
						"base": "t_address",
						"encoding": "dynamic_array",
						"label": "address[]",
						"numberOfBytes": "32"
					},
					"t_mapping(t_address,t_uint256)": {
						"encoding": "mapping",
						"key": "t_address",
						"label": "mapping(address => uint256)",
						"numberOfBytes": "32",
						"value": "t_uint256"
					},
					"t_uint256": {
						"encoding": "inplace",
						"label": "uint256",
						"numberOfBytes": "32"
					}
				}
			},
			"userdoc": {
				"kind": "user",
				"methods": {},
				"version": 1
			}
		}
	}
}